{
  "_format": "hh-sol-artifact-1",
  "contractName": "Plussy",
  "sourceName": "contracts/Plussies.sol",
  "abi": [
    {
      "inputs": [],
      "stateMutability": "nonpayable",
      "type": "constructor"
    },
    {
      "inputs": [
        {
          "internalType": "uint256",
          "name": "",
          "type": "uint256"
        }
      ],
      "name": "PlussyOverCapacity",
      "type": "error"
    },
    {
      "inputs": [
        {
          "internalType": "uint256",
          "name": "",
          "type": "uint256"
        }
      ],
      "name": "PlussyTooSoon",
      "type": "error"
    },
    {
      "anonymous": false,
      "inputs": [
        {
          "indexed": false,
          "internalType": "address",
          "name": "plussyPerson",
          "type": "address"
        },
        {
          "indexed": false,
          "internalType": "string",
          "name": "plussy",
          "type": "string"
        }
      ],
      "name": "AnewPlussy",
      "type": "event"
    },
    {
      "anonymous": false,
      "inputs": [
        {
          "indexed": false,
          "internalType": "address",
          "name": "plussier",
          "type": "address"
        },
        {
          "indexed": false,
          "internalType": "string",
          "name": "plussiedThing",
          "type": "string"
        }
      ],
      "name": "Plussied",
      "type": "event"
    },
    {
      "inputs": [],
      "name": "chosenPlussyAddress",
      "outputs": [
        {
          "internalType": "address",
          "name": "",
          "type": "address"
        }
      ],
      "stateMutability": "view",
      "type": "function"
    },
    {
      "inputs": [],
      "name": "getChosenPlussy",
      "outputs": [
        {
          "internalType": "string",
          "name": "",
          "type": "string"
        },
        {
          "internalType": "address",
          "name": "",
          "type": "address"
        }
      ],
      "stateMutability": "view",
      "type": "function"
    },
    {
      "inputs": [],
      "name": "getLastPlussiedPlussy",
      "outputs": [
        {
          "internalType": "string",
          "name": "",
          "type": "string"
        },
        {
          "internalType": "address",
          "name": "",
          "type": "address"
        }
      ],
      "stateMutability": "view",
      "type": "function"
    },
    {
      "inputs": [
        {
          "internalType": "address",
          "name": "artOwner",
          "type": "address"
        }
      ],
      "name": "getPlussy",
      "outputs": [
        {
          "internalType": "string",
          "name": "",
          "type": "string"
        }
      ],
      "stateMutability": "view",
      "type": "function"
    },
    {
      "inputs": [
        {
          "internalType": "address",
          "name": "artOwner",
          "type": "address"
        }
      ],
      "name": "getUserPlussies",
      "outputs": [
        {
          "internalType": "uint256",
          "name": "",
          "type": "uint256"
        }
      ],
      "stateMutability": "view",
      "type": "function"
    },
    {
      "inputs": [],
      "name": "lastPlussiedAddress",
      "outputs": [
        {
          "internalType": "address",
          "name": "",
          "type": "address"
        }
      ],
      "stateMutability": "view",
      "type": "function"
    },
    {
      "inputs": [
        {
          "internalType": "address",
          "name": "content",
          "type": "address"
        }
      ],
      "name": "plusSomething",
      "outputs": [],
      "stateMutability": "nonpayable",
      "type": "function"
    },
    {
      "inputs": [
        {
          "internalType": "string",
          "name": "content",
          "type": "string"
        }
      ],
      "name": "updateContent",
      "outputs": [],
      "stateMutability": "nonpayable",
      "type": "function"
    }
  ],
  "bytecode": "0x608060405260c86005553480156200001657600080fd5b506040518060600160405280602381526020016200107d602391396000803373ffffffffffffffffffffffffffffffffffffffff1673ffffffffffffffffffffffffffffffffffffffff168152602001908152602001600020908051906020019062000084929190620000cc565b5033600460006101000a81548173ffffffffffffffffffffffffffffffffffffffff021916908373ffffffffffffffffffffffffffffffffffffffff160217905550620001e1565b828054620000da906200017c565b90600052602060002090601f016020900481019282620000fe57600085556200014a565b82601f106200011957805160ff19168380011785556200014a565b828001600101855582156200014a579182015b82811115620001495782518255916020019190600101906200012c565b5b5090506200015991906200015d565b5090565b5b80821115620001785760008160009055506001016200015e565b5090565b600060028204905060018216806200019557607f821691505b60208210811415620001ac57620001ab620001b2565b5b50919050565b7f4e487b7100000000000000000000000000000000000000000000000000000000600052602260045260246000fd5b610e8c80620001f16000396000f3fe608060405234801561001057600080fd5b50600436106100875760003560e01c80633a9cff5b1161005b5780633a9cff5b146101145780636f7191d0146101445780637dafa675146101605780639357a5d91461017f57610087565b80623f85261461008c57806309e4c119146100aa57806324064a27146100da578063339218d9146100f8575b600080fd5b61009461019e565b6040516100a19190610b32565b60405180910390f35b6100c460048036038101906100bf919061099d565b6101c4565b6040516100d19190610c21565b60405180910390f35b6100e261020d565b6040516100ef9190610b32565b60405180910390f35b610112600480360381019061010d91906109c6565b610233565b005b61012e6004803603810190610129919061099d565b610323565b60405161013b9190610baf565b60405180910390f35b61015e6004803603810190610159919061099d565b6103f3565b005b610168610665565b604051610176929190610bd1565b60405180910390f35b610187610780565b604051610195929190610bd1565b60405180910390f35b600360009054906101000a900473ffffffffffffffffffffffffffffffffffffffff1681565b6000600160008373ffffffffffffffffffffffffffffffffffffffff1673ffffffffffffffffffffffffffffffffffffffff168152602001908152602001600020549050919050565b600460009054906101000a900473ffffffffffffffffffffffffffffffffffffffff1681565b81816000803373ffffffffffffffffffffffffffffffffffffffff1673ffffffffffffffffffffffffffffffffffffffff168152602001908152602001600020919061028092919061089b565b5033600460006101000a81548173ffffffffffffffffffffffffffffffffffffffff021916908373ffffffffffffffffffffffffffffffffffffffff1602179055507fcd2dc232591415196be11d4bc64b21027c712e7cc5f27a00250f356d075a9b21600460009054906101000a900473ffffffffffffffffffffffffffffffffffffffff16838360405161031793929190610b4d565b60405180910390a15050565b60606000808373ffffffffffffffffffffffffffffffffffffffff1673ffffffffffffffffffffffffffffffffffffffff168152602001908152602001600020805461036e90610d75565b80601f016020809104026020016040519081016040528092919081815260200182805461039a90610d75565b80156103e75780601f106103bc576101008083540402835291602001916103e7565b820191906000526020600020905b8154815290600101906020018083116103ca57829003601f168201915b50505050509050919050565b600062015180426104049190610cc3565b905080600260003373ffffffffffffffffffffffffffffffffffffffff1673ffffffffffffffffffffffffffffffffffffffff1681526020019081526020016000206000015411156104df57600081600260003373ffffffffffffffffffffffffffffffffffffffff1673ffffffffffffffffffffffffffffffffffffffff168152602001908152602001600020600001546104a09190610cc3565b9050806040517f459f7b920000000000000000000000000000000000000000000000000000000081526004016104d69190610c21565b60405180910390fd5b3373ffffffffffffffffffffffffffffffffffffffff168273ffffffffffffffffffffffffffffffffffffffff16141561054e576040517f08c379a000000000000000000000000000000000000000000000000000000000815260040161054590610c01565b60405180910390fd5b60018060008473ffffffffffffffffffffffffffffffffffffffff1673ffffffffffffffffffffffffffffffffffffffff168152602001908152602001600020600082825461059d9190610c6d565b9250508190555042600260003373ffffffffffffffffffffffffffffffffffffffff1673ffffffffffffffffffffffffffffffffffffffff168152602001908152602001600020600001819055507fbeead88fbd1c1220ff7b9112615f6bf0bc387410e0c1468801358f845e2d6632826000808573ffffffffffffffffffffffffffffffffffffffff1673ffffffffffffffffffffffffffffffffffffffff168152602001908152602001600020604051610659929190610b7f565b60405180910390a15050565b60606000806000600360009054906101000a900473ffffffffffffffffffffffffffffffffffffffff1673ffffffffffffffffffffffffffffffffffffffff1673ffffffffffffffffffffffffffffffffffffffff168152602001908152602001600020600360009054906101000a900473ffffffffffffffffffffffffffffffffffffffff168180546106f890610d75565b80601f016020809104026020016040519081016040528092919081815260200182805461072490610d75565b80156107715780601f1061074657610100808354040283529160200191610771565b820191906000526020600020905b81548152906001019060200180831161075457829003601f168201915b50505050509150915091509091565b60606000806000600460009054906101000a900473ffffffffffffffffffffffffffffffffffffffff1673ffffffffffffffffffffffffffffffffffffffff1673ffffffffffffffffffffffffffffffffffffffff168152602001908152602001600020600460009054906101000a900473ffffffffffffffffffffffffffffffffffffffff1681805461081390610d75565b80601f016020809104026020016040519081016040528092919081815260200182805461083f90610d75565b801561088c5780601f106108615761010080835404028352916020019161088c565b820191906000526020600020905b81548152906001019060200180831161086f57829003601f168201915b50505050509150915091509091565b8280546108a790610d75565b90600052602060002090601f0160209004810192826108c95760008555610910565b82601f106108e257803560ff1916838001178555610910565b82800160010185558215610910579182015b8281111561090f5782358255916020019190600101906108f4565b5b50905061091d9190610921565b5090565b5b8082111561093a576000816000905550600101610922565b5090565b60008135905061094d81610e3f565b92915050565b60008083601f84011261096557600080fd5b8235905067ffffffffffffffff81111561097e57600080fd5b60208301915083600182028301111561099657600080fd5b9250929050565b6000602082840312156109af57600080fd5b60006109bd8482850161093e565b91505092915050565b600080602083850312156109d957600080fd5b600083013567ffffffffffffffff8111156109f357600080fd5b6109ff85828601610953565b92509250509250929050565b610a1481610cf7565b82525050565b6000610a268385610c5c565b9350610a33838584610d33565b610a3c83610e05565b840190509392505050565b6000610a5282610c51565b610a5c8185610c5c565b9350610a6c818560208601610d42565b610a7581610e05565b840191505092915050565b60008154610a8d81610d75565b610a978186610c5c565b94506001821660008114610ab25760018114610ac457610af7565b60ff1983168652602086019350610af7565b610acd85610c3c565b60005b83811015610aef57815481890152600182019150602081019050610ad0565b808801955050505b50505092915050565b6000610b0d601683610c5c565b9150610b1882610e16565b602082019050919050565b610b2c81610d29565b82525050565b6000602082019050610b476000830184610a0b565b92915050565b6000604082019050610b626000830186610a0b565b8181036020830152610b75818486610a1a565b9050949350505050565b6000604082019050610b946000830185610a0b565b8181036020830152610ba68184610a80565b90509392505050565b60006020820190508181036000830152610bc98184610a47565b905092915050565b60006040820190508181036000830152610beb8185610a47565b9050610bfa6020830184610a0b565b9392505050565b60006020820190508181036000830152610c1a81610b00565b9050919050565b6000602082019050610c366000830184610b23565b92915050565b60008190508160005260206000209050919050565b600081519050919050565b600082825260208201905092915050565b6000610c7882610d29565b9150610c8383610d29565b9250827fffffffffffffffffffffffffffffffffffffffffffffffffffffffffffffffff03821115610cb857610cb7610da7565b5b828201905092915050565b6000610cce82610d29565b9150610cd983610d29565b925082821015610cec57610ceb610da7565b5b828203905092915050565b6000610d0282610d09565b9050919050565b600073ffffffffffffffffffffffffffffffffffffffff82169050919050565b6000819050919050565b82818337600083830152505050565b60005b83811015610d60578082015181840152602081019050610d45565b83811115610d6f576000848401525b50505050565b60006002820490506001821680610d8d57607f821691505b60208210811415610da157610da0610dd6565b5b50919050565b7f4e487b7100000000000000000000000000000000000000000000000000000000600052601160045260246000fd5b7f4e487b7100000000000000000000000000000000000000000000000000000000600052602260045260246000fd5b6000601f19601f8301169050919050565b7f43616e277420706c757320796f757273656c66203b2900000000000000000000600082015250565b610e4881610cf7565b8114610e5357600080fd5b5056fea264697066735822122094ce55137dbeaf18a06f8b17586fdac2f380469de5cdcbc0bf9f87c48f42dfaa64736f6c634300080400336e6577206c6966653b2077652764206170706c61756420686572206e6577206c696665",
  "linkReferences": {},
  "deployedLinkReferences": {}
}