{
  "_format": "hh-sol-artifact-1",
  "contractName": "Transistors",
  "sourceName": "contracts/Transistors.sol",
  "abi": [
    {
      "inputs": [],
      "stateMutability": "nonpayable",
      "type": "constructor"
    },
    {
      "anonymous": false,
      "inputs": [
        {
          "indexed": true,
          "internalType": "address",
          "name": "owner",
          "type": "address"
        },
        {
          "indexed": true,
          "internalType": "address",
          "name": "approved",
          "type": "address"
        },
        {
          "indexed": true,
          "internalType": "uint256",
          "name": "tokenId",
          "type": "uint256"
        }
      ],
      "name": "Approval",
      "type": "event"
    },
    {
      "anonymous": false,
      "inputs": [
        {
          "indexed": true,
          "internalType": "address",
          "name": "owner",
          "type": "address"
        },
        {
          "indexed": true,
          "internalType": "address",
          "name": "operator",
          "type": "address"
        },
        {
          "indexed": false,
          "internalType": "bool",
          "name": "approved",
          "type": "bool"
        }
      ],
      "name": "ApprovalForAll",
      "type": "event"
    },
    {
      "anonymous": false,
      "inputs": [
        {
          "indexed": false,
          "internalType": "address",
          "name": "sender",
          "type": "address"
        },
        {
          "indexed": false,
          "internalType": "uint256",
          "name": "tokenId",
          "type": "uint256"
        }
      ],
      "name": "NewNFTMinted",
      "type": "event"
    },
    {
      "anonymous": false,
      "inputs": [
        {
          "indexed": true,
          "internalType": "address",
          "name": "from",
          "type": "address"
        },
        {
          "indexed": true,
          "internalType": "address",
          "name": "to",
          "type": "address"
        },
        {
          "indexed": true,
          "internalType": "uint256",
          "name": "tokenId",
          "type": "uint256"
        }
      ],
      "name": "Transfer",
      "type": "event"
    },
    {
      "inputs": [
        {
          "internalType": "address",
          "name": "to",
          "type": "address"
        },
        {
          "internalType": "uint256",
          "name": "tokenId",
          "type": "uint256"
        }
      ],
      "name": "approve",
      "outputs": [],
      "stateMutability": "nonpayable",
      "type": "function"
    },
    {
      "inputs": [
        {
          "internalType": "address",
          "name": "owner",
          "type": "address"
        }
      ],
      "name": "balanceOf",
      "outputs": [
        {
          "internalType": "uint256",
          "name": "",
          "type": "uint256"
        }
      ],
      "stateMutability": "view",
      "type": "function"
    },
    {
      "inputs": [
        {
          "internalType": "uint256",
          "name": "tokenId",
          "type": "uint256"
        }
      ],
      "name": "getApproved",
      "outputs": [
        {
          "internalType": "address",
          "name": "",
          "type": "address"
        }
      ],
      "stateMutability": "view",
      "type": "function"
    },
    {
      "inputs": [
        {
          "internalType": "address",
          "name": "owner",
          "type": "address"
        },
        {
          "internalType": "address",
          "name": "operator",
          "type": "address"
        }
      ],
      "name": "isApprovedForAll",
      "outputs": [
        {
          "internalType": "bool",
          "name": "",
          "type": "bool"
        }
      ],
      "stateMutability": "view",
      "type": "function"
    },
    {
      "inputs": [],
      "name": "makeNFT",
      "outputs": [],
      "stateMutability": "nonpayable",
      "type": "function"
    },
    {
      "inputs": [],
      "name": "name",
      "outputs": [
        {
          "internalType": "string",
          "name": "",
          "type": "string"
        }
      ],
      "stateMutability": "view",
      "type": "function"
    },
    {
      "inputs": [
        {
          "internalType": "uint256",
          "name": "tokenId",
          "type": "uint256"
        }
      ],
      "name": "ownerOf",
      "outputs": [
        {
          "internalType": "address",
          "name": "",
          "type": "address"
        }
      ],
      "stateMutability": "view",
      "type": "function"
    },
    {
      "inputs": [
        {
          "internalType": "uint256",
          "name": "tokenId",
          "type": "uint256"
        }
      ],
      "name": "pickRandomColor",
      "outputs": [
        {
          "internalType": "string",
          "name": "",
          "type": "string"
        }
      ],
      "stateMutability": "view",
      "type": "function"
    },
    {
      "inputs": [
        {
          "internalType": "uint256",
          "name": "tokenId",
          "type": "uint256"
        }
      ],
      "name": "pickRandomFirstWord",
      "outputs": [
        {
          "internalType": "string",
          "name": "",
          "type": "string"
        }
      ],
      "stateMutability": "view",
      "type": "function"
    },
    {
      "inputs": [
        {
          "internalType": "uint256",
          "name": "tokenId",
          "type": "uint256"
        }
      ],
      "name": "pickRandomSecondWord",
      "outputs": [
        {
          "internalType": "string",
          "name": "",
          "type": "string"
        }
      ],
      "stateMutability": "view",
      "type": "function"
    },
    {
      "inputs": [
        {
          "internalType": "uint256",
          "name": "tokenId",
          "type": "uint256"
        }
      ],
      "name": "pickRandomThirdWord",
      "outputs": [
        {
          "internalType": "string",
          "name": "",
          "type": "string"
        }
      ],
      "stateMutability": "view",
      "type": "function"
    },
    {
      "inputs": [
        {
          "internalType": "address",
          "name": "from",
          "type": "address"
        },
        {
          "internalType": "address",
          "name": "to",
          "type": "address"
        },
        {
          "internalType": "uint256",
          "name": "tokenId",
          "type": "uint256"
        }
      ],
      "name": "safeTransferFrom",
      "outputs": [],
      "stateMutability": "nonpayable",
      "type": "function"
    },
    {
      "inputs": [
        {
          "internalType": "address",
          "name": "from",
          "type": "address"
        },
        {
          "internalType": "address",
          "name": "to",
          "type": "address"
        },
        {
          "internalType": "uint256",
          "name": "tokenId",
          "type": "uint256"
        },
        {
          "internalType": "bytes",
          "name": "_data",
          "type": "bytes"
        }
      ],
      "name": "safeTransferFrom",
      "outputs": [],
      "stateMutability": "nonpayable",
      "type": "function"
    },
    {
      "inputs": [
        {
          "internalType": "address",
          "name": "operator",
          "type": "address"
        },
        {
          "internalType": "bool",
          "name": "approved",
          "type": "bool"
        }
      ],
      "name": "setApprovalForAll",
      "outputs": [],
      "stateMutability": "nonpayable",
      "type": "function"
    },
    {
      "inputs": [
        {
          "internalType": "bytes4",
          "name": "interfaceId",
          "type": "bytes4"
        }
      ],
      "name": "supportsInterface",
      "outputs": [
        {
          "internalType": "bool",
          "name": "",
          "type": "bool"
        }
      ],
      "stateMutability": "view",
      "type": "function"
    },
    {
      "inputs": [],
      "name": "symbol",
      "outputs": [
        {
          "internalType": "string",
          "name": "",
          "type": "string"
        }
      ],
      "stateMutability": "view",
      "type": "function"
    },
    {
      "inputs": [
        {
          "internalType": "uint256",
          "name": "tokenId",
          "type": "uint256"
        }
      ],
      "name": "tokenURI",
      "outputs": [
        {
          "internalType": "string",
          "name": "",
          "type": "string"
        }
      ],
      "stateMutability": "view",
      "type": "function"
    },
    {
      "inputs": [
        {
          "internalType": "address",
          "name": "from",
          "type": "address"
        },
        {
          "internalType": "address",
          "name": "to",
          "type": "address"
        },
        {
          "internalType": "uint256",
          "name": "tokenId",
          "type": "uint256"
        }
      ],
      "name": "transferFrom",
      "outputs": [],
      "stateMutability": "nonpayable",
      "type": "function"
    }
  ],
  "bytecode": "0x608060405260405180610100016040528060d8815260200162005d2760d89139600890805190602001906200003692919062001dc7565b5060405180608001604052806057815260200162005cd060579139600990805190602001906200006892919062001dc7565b506040518060800160405280605a815260200162005dff605a9139600a90805190602001906200009a92919062001dc7565b506040518060800160405280605a815260200162005e59605a9139600b9080519060200190620000cc92919062001dc7565b506040518061080001604052806040518060400160405280600781526020017f206172677565200000000000000000000000000000000000000000000000000081525081526020016040518060400160405280600681526020017f206675636b20000000000000000000000000000000000000000000000000000081525081526020016040518060400160405280600781526020017f206865617274200000000000000000000000000000000000000000000000000081525081526020016040518060400160405280600581526020017f206469652000000000000000000000000000000000000000000000000000000081525081526020016040518060400160405280600681526020017f207370697420000000000000000000000000000000000000000000000000000081525081526020016040518060400160405280600881526020017f2063616e746f722000000000000000000000000000000000000000000000000081525081526020016040518060400160405280600881526020017f20696e736f6c652000000000000000000000000000000000000000000000000081525081526020016040518060400160405280600681526020017f206261726b20000000000000000000000000000000000000000000000000000081525081526020016040518060400160405280600881526020017f20686f6c6c75702000000000000000000000000000000000000000000000000081525081526020016040518060400160405280600881526020017f206162736f72622000000000000000000000000000000000000000000000000081525081526020016040518060400160405280600b81526020017f207472616e7363656e642000000000000000000000000000000000000000000081525081526020016040518060400160405280600981526020017f20616d706c69667920000000000000000000000000000000000000000000000081525081526020016040518060400160405280600681526020017f206861636b20000000000000000000000000000000000000000000000000000081525081526020016040518060400160405280600981526020017f207368696d6d657220000000000000000000000000000000000000000000000081525081526020016040518060400160405280600c81526020017f20696c6c756d696e61746520000000000000000000000000000000000000000081525081526020016040518060400160405280600981526020017f206d79737469667920000000000000000000000000000000000000000000000081525081526020016040518060400160405280600b81526020017f207472616e73666f726d2000000000000000000000000000000000000000000081525081526020016040518060400160405280600a81526020017f20756e74616e676c65200000000000000000000000000000000000000000000081525081526020016040518060400160405280600981526020017f20756e656172746820000000000000000000000000000000000000000000000081525081526020016040518060400160405280600581526020017f205249502000000000000000000000000000000000000000000000000000000081525081526020016040518060400160405280600681526020017f207269736520000000000000000000000000000000000000000000000000000081525081526020016040518060400160405280600981526020017f20676c697474657220000000000000000000000000000000000000000000000081525081526020016040518060400160405280600981526020017f20676c697374656e20000000000000000000000000000000000000000000000081525081526020016040518060400160405280600781526020017f20676c617265200000000000000000000000000000000000000000000000000081525081526020016040518060400160405280600881526020017f20676172626c652000000000000000000000000000000000000000000000000081525081526020016040518060400160405280600681526020017f206675736520000000000000000000000000000000000000000000000000000081525081526020016040518060400160405280600881526020017f207265636f696c2000000000000000000000000000000000000000000000000081525081526020016040518060400160405280600781526020017f20736e617265200000000000000000000000000000000000000000000000000081525081526020016040518060400160405280600781526020017f20647261696e200000000000000000000000000000000000000000000000000081525081526020016040518060400160405280600a81526020017f20646f776e6c6f6164200000000000000000000000000000000000000000000081525081526020016040518060400160405280600881526020017f206465766f75722000000000000000000000000000000000000000000000000081525081526020016040518060400160405280600881526020017f2064616e676c652000000000000000000000000000000000000000000000000081525081526020016040518060400160405280600781526020017f206372617368200000000000000000000000000000000000000000000000000081525081526020016040518060400160405280600681526020017f206861696c20000000000000000000000000000000000000000000000000000081525081526020016040518060400160405280600781526020017f20626f6f7374200000000000000000000000000000000000000000000000000081525081526020016040518060400160405280600781526020017f2063616e2774200000000000000000000000000000000000000000000000000081525081526020016040518060400160405280600681526020017f207368697020000000000000000000000000000000000000000000000000000081525081526020016040518060400160405280600681526020017f207a696e6720000000000000000000000000000000000000000000000000000081525081526020016040518060400160405280600581526020017f206765742000000000000000000000000000000000000000000000000000000081525081526020016040518060400160405280600681526020017f20706f737420000000000000000000000000000000000000000000000000000081525081526020016040518060400160405280600681526020017f206472697020000000000000000000000000000000000000000000000000000081525081526020016040518060400160405280600781526020017f20737465616c200000000000000000000000000000000000000000000000000081525081526020016040518060400160405280600781526020017f20736c757270200000000000000000000000000000000000000000000000000081525081526020016040518060400160405280600781526020017f20736c75726d200000000000000000000000000000000000000000000000000081525081526020016040518060400160405280600781526020017f20736e65616b200000000000000000000000000000000000000000000000000081525081526020016040518060400160405280600681526020017f207370616d20000000000000000000000000000000000000000000000000000081525081526020016040518060400160405280600981526020017f20737061726b6c6520000000000000000000000000000000000000000000000081525081526020016040518060400160405280600a81526020017f20737072696e6b6c65200000000000000000000000000000000000000000000081525081526020016040518060400160405280600681526020017f20726f6c6c20000000000000000000000000000000000000000000000000000081525081526020016040518060400160405280600781526020017f20636c6f6e65200000000000000000000000000000000000000000000000000081525081526020016040518060400160405280600881526020017f207361736861792000000000000000000000000000000000000000000000000081525081526020016040518060400160405280600681526020017f207370696e20000000000000000000000000000000000000000000000000000081525081526020016040518060400160405280600781526020017f20776869726c200000000000000000000000000000000000000000000000000081525081526020016040518060400160405280600781526020017f20686f76656c200000000000000000000000000000000000000000000000000081525081526020016040518060400160405280600681526020017f2064756d7020000000000000000000000000000000000000000000000000000081525081526020016040518060400160405280600581526020017f206e61672000000000000000000000000000000000000000000000000000000081525081526020016040518060400160405280600b81526020017f20736b79726f636b65742000000000000000000000000000000000000000000081525081526020016040518060400160405280600c81526020017f2072656d696e697363696365000000000000000000000000000000000000000081525081526020016040518060400160405280600881526020017f20666c6f7765722000000000000000000000000000000000000000000000000081525081526020016040518060400160405280600881526020017f20626c6f6f64792000000000000000000000000000000000000000000000000081525081526020016040518060400160405280600981526020017f20646576616c756520000000000000000000000000000000000000000000000081525081526020016040518060400160405280600781526020017f207461696e74200000000000000000000000000000000000000000000000000081525081526020016040518060400160405280600581526020017f207665782000000000000000000000000000000000000000000000000000000081525081526020016040518060400160405280600581526020017f73656e6420000000000000000000000000000000000000000000000000000000815250815250600c90604062000fa992919062001e58565b506040518061038001604052806040518060400160405280600581526020017ff09f98872000000000000000000000000000000000000000000000000000000081525081526020016040518060400160405280600581526020017ff09f989d2000000000000000000000000000000000000000000000000000000081525081526020016040518060400160405280600581526020017ff09f988e2000000000000000000000000000000000000000000000000000000081525081526020016040518060400160405280600581526020017ff09f98ab2000000000000000000000000000000000000000000000000000000081525081526020016040518060400160405280600581526020017ff09f98a92000000000000000000000000000000000000000000000000000000081525081526020016040518060400160405280600581526020017ff09fa5ba2000000000000000000000000000000000000000000000000000000081525081526020016040518060400160405280600581526020017ff09f98a42000000000000000000000000000000000000000000000000000000081525081526020016040518060400160405280600581526020017ff09f98b32000000000000000000000000000000000000000000000000000000081525081526020016040518060400160405280600581526020017ff09f98b12000000000000000000000000000000000000000000000000000000081525081526020016040518060400160405280600581526020017ff09f98a82000000000000000000000000000000000000000000000000000000081525081526020016040518060400160405280600581526020017ff09fa4ab2000000000000000000000000000000000000000000000000000000081525081526020016040518060400160405280600581526020017ff09fa4a52000000000000000000000000000000000000000000000000000000081525081526020016040518060400160405280600581526020017ff09f98b62000000000000000000000000000000000000000000000000000000081525081526020016040518060400160405280600581526020017ff09f98912000000000000000000000000000000000000000000000000000000081525081526020016040518060400160405280600581526020017ff09f99842000000000000000000000000000000000000000000000000000000081525081526020016040518060400160405280600581526020017ff09f98b22000000000000000000000000000000000000000000000000000000081525081526020016040518060400160405280600581526020017ff09fa5b12000000000000000000000000000000000000000000000000000000081525081526020016040518060400160405280600581526020017ff09f98b42000000000000000000000000000000000000000000000000000000081525081526020016040518060400160405280600581526020017ff09fa4a42000000000000000000000000000000000000000000000000000000081525081526020016040518060400160405280600581526020017ff09f98aa2000000000000000000000000000000000000000000000000000000081525081526020016040518060400160405280600581526020017ff09f98b52000000000000000000000000000000000000000000000000000000081525081526020016040518060400160405280600581526020017ff09fa5b42000000000000000000000000000000000000000000000000000000081525081526020016040518060400160405280600581526020017ff09fa4ae2000000000000000000000000000000000000000000000000000000081525081526020016040518060400160405280600581526020017ff09fa4a72000000000000000000000000000000000000000000000000000000081525081526020016040518060400160405280600581526020017ff09fa4912000000000000000000000000000000000000000000000000000000081525081526020016040518060400160405280600581526020017ff09fa4a02000000000000000000000000000000000000000000000000000000081525081526020016040518060400160405280600581526020017ff09fa4a12000000000000000000000000000000000000000000000000000000081525081526020016040518060400160405280600581526020017ff09f9aa820000000000000000000000000000000000000000000000000000000815250815250600d90601c6200163a92919062001ebf565b506040518061024001604052806040518060400160405280600681526020017f61206c6f7420000000000000000000000000000000000000000000000000000081525081526020016040518060400160405280600a81526020017f796f7572206c696573200000000000000000000000000000000000000000000081525081526020016040518060400160405280600c81526020017f6465737065726174656c7920000000000000000000000000000000000000000081525081526020016040518060400160405280600481526020017f706c73200000000000000000000000000000000000000000000000000000000081525081526020016040518060400160405280600c81526020017f7769746820696e74656e7420000000000000000000000000000000000000000081525081526020016040518060400160405280600c81526020017f636f6e7363696f75736c7920000000000000000000000000000000000000000081525081526020016040518060400160405280600581526020017f7a696e672000000000000000000000000000000000000000000000000000000081525081526020016040518060400160405280600481526020017f7a6170200000000000000000000000000000000000000000000000000000000081525081526020016040518060400160405280600581526020017f7a6f6f6d2000000000000000000000000000000000000000000000000000000081525081526020016040518060400160405280600581526020017f617761792000000000000000000000000000000000000000000000000000000081525081526020016040518060400160405280600381526020017f6d6520000000000000000000000000000000000000000000000000000000000081525081526020016040518060400160405280600b81526020017f746869732073706163652000000000000000000000000000000000000000000081525081526020016040518060400160405280600681526020017f7472756c7920000000000000000000000000000000000000000000000000000081525081526020016040518060400160405280600a81526020017f646f67206d6f6e6579200000000000000000000000000000000000000000000081525081526020016040518060400160405280600a81526020017f6d792063656e746572200000000000000000000000000000000000000000000081525081526020016040518060400160405280600a81526020017f62697463686e657373200000000000000000000000000000000000000000000081525081526020016040518060400160405280600581526020017f686172702000000000000000000000000000000000000000000000000000000081525081526020016040518060400160405280601281526020017f7769746820616e74696369706174696f6e200000000000000000000000000000815250815250600e90601262001a7d92919062001f26565b506040518060c001604052806040518060400160405280600581526020017f626c61636b00000000000000000000000000000000000000000000000000000081525081526020016040518060400160405280600781526020017f233430643634300000000000000000000000000000000000000000000000000081525081526020016040518060400160405280600781526020017f236436343034300000000000000000000000000000000000000000000000000081525081526020016040518060400160405280600781526020017f236436343064360000000000000000000000000000000000000000000000000081525081526020016040518060400160405280600781526020017f233430343064360000000000000000000000000000000000000000000000000081525081526020016040518060400160405280600781526020017f2364366436343000000000000000000000000000000000000000000000000000815250815250600f90600662001bfb92919062001f8d565b5034801562001c0957600080fd5b506040518060400160405280601381526020017f7472616e736973746f7273207472616e736974000000000000000000000000008152506040518060400160405280600b81526020017f5452414e534953544f5253000000000000000000000000000000000000000000815250816000908051906020019062001c8e92919062001dc7565b50806001908051906020019062001ca792919062001dc7565b50505062001cf56040518060400160405280600c81526020017f436f6e737472756374656421000000000000000000000000000000000000000081525062001cfb60201b620013e21760201c565b620021ae565b62001d9b8160405160240162001d129190620020c2565b6040516020818303038152906040527f41304fac000000000000000000000000000000000000000000000000000000007bffffffffffffffffffffffffffffffffffffffffffffffffffffffff19166020820180517bffffffffffffffffffffffffffffffffffffffffffffffffffffffff838183161783525050505062001d9e60201b60201c565b50565b60008151905060006a636f6e736f6c652e6c6f679050602083016000808483855afa5050505050565b82805462001dd59062002138565b90600052602060002090601f01602090048101928262001df9576000855562001e45565b82601f1062001e1457805160ff191683800117855562001e45565b8280016001018555821562001e45579182015b8281111562001e4457825182559160200191906001019062001e27565b5b50905062001e54919062001ff4565b5090565b82805482825590600052602060002090810192821562001eac579160200282015b8281111562001eab57825182908051906020019062001e9a92919062001dc7565b509160200191906001019062001e79565b5b50905062001ebb919062002013565b5090565b82805482825590600052602060002090810192821562001f13579160200282015b8281111562001f1257825182908051906020019062001f0192919062001dc7565b509160200191906001019062001ee0565b5b50905062001f22919062002013565b5090565b82805482825590600052602060002090810192821562001f7a579160200282015b8281111562001f7957825182908051906020019062001f6892919062001dc7565b509160200191906001019062001f47565b5b50905062001f89919062002013565b5090565b82805482825590600052602060002090810192821562001fe1579160200282015b8281111562001fe057825182908051906020019062001fcf92919062001dc7565b509160200191906001019062001fae565b5b50905062001ff0919062002013565b5090565b5b808211156200200f57600081600090555060010162001ff5565b5090565b5b808211156200203757600081816200202d91906200203b565b5060010162002014565b5090565b508054620020499062002138565b6000825580601f106200205d57506200207e565b601f0160209004906000526020600020908101906200207d919062001ff4565b5b50565b60006200208e82620020e6565b6200209a8185620020f1565b9350620020ac81856020860162002102565b620020b7816200219d565b840191505092915050565b60006020820190508181036000830152620020de818462002081565b905092915050565b600081519050919050565b600082825260208201905092915050565b60005b838110156200212257808201518184015260208101905062002105565b8381111562002132576000848401525b50505050565b600060028204905060018216806200215157607f821691505b602082108114156200216857620021676200216e565b5b50919050565b7f4e487b7100000000000000000000000000000000000000000000000000000000600052602260045260246000fd5b6000601f19601f8301169050919050565b613b1280620021be6000396000f3fe608060405234801561001057600080fd5b50600436106101165760003560e01c806370a08231116100a2578063b187301f11610071578063b187301f146102f1578063b88d4fde14610321578063c575757a1461033d578063c87b56dd1461036d578063e985e9c51461039d57610116565b806370a082311461027d57806395d89b41146102ad578063a22cb465146102cb578063b036b4bd146102e757610116565b806323b872dd116100e957806323b872dd146101b55780632de38d68146101d157806342842e0e14610201578063514dc8c61461021d5780636352211e1461024d57610116565b806301ffc9a71461011b57806306fdde031461014b578063081812fc14610169578063095ea7b314610199575b600080fd5b61013560048036038101906101309190612656565b6103cd565b6040516101429190613368565b60405180910390f35b6101536104af565b6040516101609190613383565b60405180910390f35b610183600480360381019061017e91906126a8565b610541565b60405161019091906132d8565b60405180910390f35b6101b360048036038101906101ae919061261a565b6105c6565b005b6101cf60048036038101906101ca9190612514565b6106de565b005b6101eb60048036038101906101e691906126a8565b61073e565b6040516101f89190613383565b60405180910390f35b61021b60048036038101906102169190612514565b61085c565b005b610237600480360381019061023291906126a8565b61087c565b6040516102449190613383565b60405180910390f35b610267600480360381019061026291906126a8565b61099a565b60405161027491906132d8565b60405180910390f35b610297600480360381019061029291906124af565b610a4c565b6040516102a49190613603565b60405180910390f35b6102b5610b04565b6040516102c29190613383565b60405180910390f35b6102e560048036038101906102e091906125de565b610b96565b005b6102ef610d17565b005b61030b600480360381019061030691906126a8565b610f5e565b6040516103189190613383565b60405180910390f35b61033b60048036038101906103369190612563565b61107c565b005b610357600480360381019061035291906126a8565b6110de565b6040516103649190613383565b60405180910390f35b610387600480360381019061038291906126a8565b6111fc565b6040516103949190613383565b60405180910390f35b6103b760048036038101906103b291906124d8565b61134e565b6040516103c49190613368565b60405180910390f35b60007f80ac58cd000000000000000000000000000000000000000000000000000000007bffffffffffffffffffffffffffffffffffffffffffffffffffffffff1916827bffffffffffffffffffffffffffffffffffffffffffffffffffffffff1916148061049857507f5b5e139f000000000000000000000000000000000000000000000000000000007bffffffffffffffffffffffffffffffffffffffffffffffffffffffff1916827bffffffffffffffffffffffffffffffffffffffffffffffffffffffff1916145b806104a857506104a78261147b565b5b9050919050565b6060600080546104be906138a2565b80601f01602080910402602001604051908101604052809291908181526020018280546104ea906138a2565b80156105375780601f1061050c57610100808354040283529160200191610537565b820191906000526020600020905b81548152906001019060200180831161051a57829003601f168201915b5050505050905090565b600061054c826114e5565b61058b576040517f08c379a000000000000000000000000000000000000000000000000000000000815260040161058290613563565b60405180910390fd5b6004600083815260200190815260200160002060009054906101000a900473ffffffffffffffffffffffffffffffffffffffff169050919050565b60006105d18261099a565b90508073ffffffffffffffffffffffffffffffffffffffff168373ffffffffffffffffffffffffffffffffffffffff161415610642576040517f08c379a0000000000000000000000000000000000000000000000000000000008152600401610639906135c3565b60405180910390fd5b8073ffffffffffffffffffffffffffffffffffffffff16610661611551565b73ffffffffffffffffffffffffffffffffffffffff161480610690575061068f8161068a611551565b61134e565b5b6106cf576040517f08c379a00000000000000000000000000000000000000000000000000000000081526004016106c6906134a3565b60405180910390fd5b6106d98383611559565b505050565b6106ef6106e9611551565b82611612565b61072e576040517f08c379a0000000000000000000000000000000000000000000000000000000008152600401610725906135e3565b60405180910390fd5b6107398383836116f0565b505050565b6060600061077261074e8461194c565b60405160200161075e9190613272565b604051602081830303815290604052611af9565b9050600c8054905081610785919061391d565b9050600c81815481106107c1577f4e487b7100000000000000000000000000000000000000000000000000000000600052603260045260246000fd5b9060005260206000200180546107d6906138a2565b80601f0160208091040260200160405190810160405280929190818152602001828054610802906138a2565b801561084f5780601f106108245761010080835404028352916020019161084f565b820191906000526020600020905b81548152906001019060200180831161083257829003601f168201915b5050505050915050919050565b6108778383836040518060200160405280600081525061107c565b505050565b606060006108b061088c8461194c565b60405160200161089c91906132b6565b604051602081830303815290604052611af9565b9050600f80549050816108c3919061391d565b9050600f81815481106108ff577f4e487b7100000000000000000000000000000000000000000000000000000000600052603260045260246000fd5b906000526020600020018054610914906138a2565b80601f0160208091040260200160405190810160405280929190818152602001828054610940906138a2565b801561098d5780601f106109625761010080835404028352916020019161098d565b820191906000526020600020905b81548152906001019060200180831161097057829003601f168201915b5050505050915050919050565b6000806002600084815260200190815260200160002060009054906101000a900473ffffffffffffffffffffffffffffffffffffffff169050600073ffffffffffffffffffffffffffffffffffffffff168173ffffffffffffffffffffffffffffffffffffffff161415610a43576040517f08c379a0000000000000000000000000000000000000000000000000000000008152600401610a3a906134e3565b60405180910390fd5b80915050919050565b60008073ffffffffffffffffffffffffffffffffffffffff168273ffffffffffffffffffffffffffffffffffffffff161415610abd576040517f08c379a0000000000000000000000000000000000000000000000000000000008152600401610ab4906134c3565b60405180910390fd5b600360008373ffffffffffffffffffffffffffffffffffffffff1673ffffffffffffffffffffffffffffffffffffffff168152602001908152602001600020549050919050565b606060018054610b13906138a2565b80601f0160208091040260200160405190810160405280929190818152602001828054610b3f906138a2565b8015610b8c5780601f10610b6157610100808354040283529160200191610b8c565b820191906000526020600020905b815481529060010190602001808311610b6f57829003601f168201915b5050505050905090565b610b9e611551565b73ffffffffffffffffffffffffffffffffffffffff168273ffffffffffffffffffffffffffffffffffffffff161415610c0c576040517f08c379a0000000000000000000000000000000000000000000000000000000008152600401610c0390613443565b60405180910390fd5b8060056000610c19611551565b73ffffffffffffffffffffffffffffffffffffffff1673ffffffffffffffffffffffffffffffffffffffff16815260200190815260200160002060008473ffffffffffffffffffffffffffffffffffffffff1673ffffffffffffffffffffffffffffffffffffffff16815260200190815260200160002060006101000a81548160ff0219169083151502179055508173ffffffffffffffffffffffffffffffffffffffff16610cc6611551565b73ffffffffffffffffffffffffffffffffffffffff167f17307eab39ab6107e8899845ad3d59bd9653f200f220920489ca2b5937696c3183604051610d0b9190613368565b60405180910390a35050565b6000610d236007611b2c565b905060d48110610d68576040517f08c379a0000000000000000000000000000000000000000000000000000000008152600401610d5f90613483565b60405180910390fd5b6000610d738261073e565b90506000610d8083610f5e565b90506000610d8d846110de565b90506000610d9a8561087c565b90506000848484604051602001610db39392919061313b565b60405160208183030381529060405290506000600883600988600a89600b8a604051602001610de998979695949392919061316c565b60405160208183030381529060405290506000610e2e83610e0984611b3a565b604051602001610e1a92919061322d565b604051602081830303815290604052611b3a565b9050600081604051602001610e439190613294565b6040516020818303038152906040529050610e926040518060400160405280601b81526020017f0a2d2d2d2d2d2d2d2d2d2d2d2d2d2d2d2d2d2d2d2d2d2d2d2d2d2d00000000008152506113e2565b610e9b816113e2565b610ed96040518060400160405280601b81526020017f0a2d2d2d2d2d2d2d2d2d2d2d2d2d2d2d2d2d2d2d2d2d2d2d2d2d2d00000000008152506113e2565b610ee3338a611cd9565b610eed8982611cf7565b610f10604051806060016040528060258152602001613a78602591398a33611d6b565b610f1a6007611e0a565b7f1c05098ed1ff38e6238d2b1b04b2c7977d4c94ce651bda6473f9dba8dbf01da0338a604051610f4b92919061333f565b60405180910390a1505050505050505050565b60606000610f92610f6e8461194c565b604051602001610f7e919061320b565b604051602081830303815290604052611af9565b9050600d8054905081610fa5919061391d565b9050600d8181548110610fe1577f4e487b7100000000000000000000000000000000000000000000000000000000600052603260045260246000fd5b906000526020600020018054610ff6906138a2565b80601f0160208091040260200160405190810160405280929190818152602001828054611022906138a2565b801561106f5780601f106110445761010080835404028352916020019161106f565b820191906000526020600020905b81548152906001019060200180831161105257829003601f168201915b5050505050915050919050565b61108d611087611551565b83611612565b6110cc576040517f08c379a00000000000000000000000000000000000000000000000000000000081526004016110c3906135e3565b60405180910390fd5b6110d884848484611e20565b50505050565b606060006111126110ee8461194c565b6040516020016110fe91906131e9565b604051602081830303815290604052611af9565b9050600e8054905081611125919061391d565b9050600e8181548110611161577f4e487b7100000000000000000000000000000000000000000000000000000000600052603260045260246000fd5b906000526020600020018054611176906138a2565b80601f01602080910402602001604051908101604052809291908181526020018280546111a2906138a2565b80156111ef5780601f106111c4576101008083540402835291602001916111ef565b820191906000526020600020905b8154815290600101906020018083116111d257829003601f168201915b5050505050915050919050565b6060611207826114e5565b611246576040517f08c379a000000000000000000000000000000000000000000000000000000000815260040161123d90613543565b60405180910390fd5b6000600660008481526020019081526020016000208054611266906138a2565b80601f0160208091040260200160405190810160405280929190818152602001828054611292906138a2565b80156112df5780601f106112b4576101008083540402835291602001916112df565b820191906000526020600020905b8154815290600101906020018083116112c257829003601f168201915b5050505050905060006112f0611e7c565b9050600081511415611306578192505050611349565b60008251111561133b578082604051602001611323929190613117565b60405160208183030381529060405292505050611349565b61134484611e93565b925050505b919050565b6000600560008473ffffffffffffffffffffffffffffffffffffffff1673ffffffffffffffffffffffffffffffffffffffff16815260200190815260200160002060008373ffffffffffffffffffffffffffffffffffffffff1673ffffffffffffffffffffffffffffffffffffffff16815260200190815260200160002060009054906101000a900460ff16905092915050565b611478816040516024016113f69190613383565b6040516020818303038152906040527f41304fac000000000000000000000000000000000000000000000000000000007bffffffffffffffffffffffffffffffffffffffffffffffffffffffff19166020820180517bffffffffffffffffffffffffffffffffffffffffffffffffffffffff8381831617835250505050611f3a565b50565b60007f01ffc9a7000000000000000000000000000000000000000000000000000000007bffffffffffffffffffffffffffffffffffffffffffffffffffffffff1916827bffffffffffffffffffffffffffffffffffffffffffffffffffffffff1916149050919050565b60008073ffffffffffffffffffffffffffffffffffffffff166002600084815260200190815260200160002060009054906101000a900473ffffffffffffffffffffffffffffffffffffffff1673ffffffffffffffffffffffffffffffffffffffff1614159050919050565b600033905090565b816004600083815260200190815260200160002060006101000a81548173ffffffffffffffffffffffffffffffffffffffff021916908373ffffffffffffffffffffffffffffffffffffffff160217905550808273ffffffffffffffffffffffffffffffffffffffff166115cc8361099a565b73ffffffffffffffffffffffffffffffffffffffff167f8c5be1e5ebec7d5bd14f71427d1e84f3dd0314c0f7b2291e5b200ac8c7c3b92560405160405180910390a45050565b600061161d826114e5565b61165c576040517f08c379a000000000000000000000000000000000000000000000000000000000815260040161165390613463565b60405180910390fd5b60006116678361099a565b90508073ffffffffffffffffffffffffffffffffffffffff168473ffffffffffffffffffffffffffffffffffffffff1614806116d657508373ffffffffffffffffffffffffffffffffffffffff166116be84610541565b73ffffffffffffffffffffffffffffffffffffffff16145b806116e757506116e6818561134e565b5b91505092915050565b8273ffffffffffffffffffffffffffffffffffffffff166117108261099a565b73ffffffffffffffffffffffffffffffffffffffff1614611766576040517f08c379a000000000000000000000000000000000000000000000000000000000815260040161175d90613583565b60405180910390fd5b600073ffffffffffffffffffffffffffffffffffffffff168273ffffffffffffffffffffffffffffffffffffffff1614156117d6576040517f08c379a00000000000000000000000000000000000000000000000000000000081526004016117cd90613423565b60405180910390fd5b6117e1838383611f63565b6117ec600082611559565b6001600360008573ffffffffffffffffffffffffffffffffffffffff1673ffffffffffffffffffffffffffffffffffffffff168152602001908152602001600020600082825461183c91906137b8565b925050819055506001600360008473ffffffffffffffffffffffffffffffffffffffff1673ffffffffffffffffffffffffffffffffffffffff168152602001908152602001600020600082825461189391906136d7565b92505081905550816002600083815260200190815260200160002060006101000a81548173ffffffffffffffffffffffffffffffffffffffff021916908373ffffffffffffffffffffffffffffffffffffffff160217905550808273ffffffffffffffffffffffffffffffffffffffff168473ffffffffffffffffffffffffffffffffffffffff167fddf252ad1be2c89b69c2b068fc378daa952ba7f163c4a11628f55a4df523b3ef60405160405180910390a4505050565b60606000821415611994576040518060400160405280600181526020017f30000000000000000000000000000000000000000000000000000000000000008152509050611af4565b600082905060005b600082146119c65780806119af906138d4565b915050600a826119bf919061372d565b915061199c565b60008167ffffffffffffffff811115611a08577f4e487b7100000000000000000000000000000000000000000000000000000000600052604160045260246000fd5b6040519080825280601f01601f191660200182016040528015611a3a5781602001600182028036833780820191505090505b5090505b60008514611aed57600182611a5391906137b8565b9150600a85611a62919061391d565b6030611a6e91906136d7565b60f81b818381518110611aaa577f4e487b7100000000000000000000000000000000000000000000000000000000600052603260045260246000fd5b60200101907effffffffffffffffffffffffffffffffffffffffffffffffffffffffffffff1916908160001a905350600a85611ae6919061372d565b9450611a3e565b8093505050505b919050565b600081604051602001611b0c9190613100565b6040516020818303038152906040528051906020012060001c9050919050565b600081600001549050919050565b6060600082511415611b5d57604051806020016040528060008152509050611cd4565b6000604051806060016040528060408152602001613a9d6040913990506000600360028551611b8c91906136d7565b611b96919061372d565b6004611ba2919061375e565b90506000602082611bb391906136d7565b67ffffffffffffffff811115611bf2577f4e487b7100000000000000000000000000000000000000000000000000000000600052604160045260246000fd5b6040519080825280601f01601f191660200182016040528015611c245781602001600182028036833780820191505090505b509050818152600183018586518101602084015b81831015611c93576003830192508251603f8160121c168501518253600182019150603f81600c1c168501518253600182019150603f8160061c168501518253600182019150603f8116850151825360018201915050611c38565b600389510660018114611cad5760028114611cbd57611cc8565b613d3d60f01b6002830352611cc8565b603d60f81b60018303525b50505050508093505050505b919050565b611cf3828260405180602001604052806000815250611f68565b5050565b611d00826114e5565b611d3f576040517f08c379a0000000000000000000000000000000000000000000000000000000008152600401611d3690613503565b60405180910390fd5b80600660008481526020019081526020016000209080519060200190611d6692919061233b565b505050565b611e05838383604051602401611d83939291906133a5565b6040516020818303038152906040527fe3849f79000000000000000000000000000000000000000000000000000000007bffffffffffffffffffffffffffffffffffffffffffffffffffffffff19166020820180517bffffffffffffffffffffffffffffffffffffffffffffffffffffffff8381831617835250505050611f3a565b505050565b6001816000016000828254019250508190555050565b611e2b8484846116f0565b611e3784848484611fc3565b611e76576040517f08c379a0000000000000000000000000000000000000000000000000000000008152600401611e6d906133e3565b60405180910390fd5b50505050565b606060405180602001604052806000815250905090565b6060611e9e826114e5565b611edd576040517f08c379a0000000000000000000000000000000000000000000000000000000008152600401611ed4906135a3565b60405180910390fd5b6000611ee7611e7c565b90506000815111611f075760405180602001604052806000815250611f32565b80611f118461194c565b604051602001611f22929190613117565b6040516020818303038152906040525b915050919050565b60008151905060006a636f6e736f6c652e6c6f679050602083016000808483855afa5050505050565b505050565b611f72838361215a565b611f7f6000848484611fc3565b611fbe576040517f08c379a0000000000000000000000000000000000000000000000000000000008152600401611fb5906133e3565b60405180910390fd5b505050565b6000611fe48473ffffffffffffffffffffffffffffffffffffffff16612328565b1561214d578373ffffffffffffffffffffffffffffffffffffffff1663150b7a0261200d611551565b8786866040518563ffffffff1660e01b815260040161202f94939291906132f3565b602060405180830381600087803b15801561204957600080fd5b505af192505050801561207a57506040513d601f19601f82011682018060405250810190612077919061267f565b60015b6120fd573d80600081146120aa576040519150601f19603f3d011682016040523d82523d6000602084013e6120af565b606091505b506000815114156120f5576040517f08c379a00000000000000000000000000000000000000000000000000000000081526004016120ec906133e3565b60405180910390fd5b805181602001fd5b63150b7a0260e01b7bffffffffffffffffffffffffffffffffffffffffffffffffffffffff1916817bffffffffffffffffffffffffffffffffffffffffffffffffffffffff191614915050612152565b600190505b949350505050565b600073ffffffffffffffffffffffffffffffffffffffff168273ffffffffffffffffffffffffffffffffffffffff1614156121ca576040517f08c379a00000000000000000000000000000000000000000000000000000000081526004016121c190613523565b60405180910390fd5b6121d3816114e5565b15612213576040517f08c379a000000000000000000000000000000000000000000000000000000000815260040161220a90613403565b60405180910390fd5b61221f60008383611f63565b6001600360008473ffffffffffffffffffffffffffffffffffffffff1673ffffffffffffffffffffffffffffffffffffffff168152602001908152602001600020600082825461226f91906136d7565b92505081905550816002600083815260200190815260200160002060006101000a81548173ffffffffffffffffffffffffffffffffffffffff021916908373ffffffffffffffffffffffffffffffffffffffff160217905550808273ffffffffffffffffffffffffffffffffffffffff16600073ffffffffffffffffffffffffffffffffffffffff167fddf252ad1be2c89b69c2b068fc378daa952ba7f163c4a11628f55a4df523b3ef60405160405180910390a45050565b600080823b905060008111915050919050565b828054612347906138a2565b90600052602060002090601f01602090048101928261236957600085556123b0565b82601f1061238257805160ff19168380011785556123b0565b828001600101855582156123b0579182015b828111156123af578251825591602001919060010190612394565b5b5090506123bd91906123c1565b5090565b5b808211156123da5760008160009055506001016123c2565b5090565b60006123f16123ec8461364f565b61361e565b90508281526020810184848401111561240957600080fd5b612414848285613860565b509392505050565b60008135905061242b81613a1b565b92915050565b60008135905061244081613a32565b92915050565b60008135905061245581613a49565b92915050565b60008151905061246a81613a49565b92915050565b600082601f83011261248157600080fd5b81356124918482602086016123de565b91505092915050565b6000813590506124a981613a60565b92915050565b6000602082840312156124c157600080fd5b60006124cf8482850161241c565b91505092915050565b600080604083850312156124eb57600080fd5b60006124f98582860161241c565b925050602061250a8582860161241c565b9150509250929050565b60008060006060848603121561252957600080fd5b60006125378682870161241c565b93505060206125488682870161241c565b92505060406125598682870161249a565b9150509250925092565b6000806000806080858703121561257957600080fd5b60006125878782880161241c565b94505060206125988782880161241c565b93505060406125a98782880161249a565b925050606085013567ffffffffffffffff8111156125c657600080fd5b6125d287828801612470565b91505092959194509250565b600080604083850312156125f157600080fd5b60006125ff8582860161241c565b925050602061261085828601612431565b9150509250929050565b6000806040838503121561262d57600080fd5b600061263b8582860161241c565b925050602061264c8582860161249a565b9150509250929050565b60006020828403121561266857600080fd5b600061267684828501612446565b91505092915050565b60006020828403121561269157600080fd5b600061269f8482850161245b565b91505092915050565b6000602082840312156126ba57600080fd5b60006126c88482850161249a565b91505092915050565b6126da816137ec565b82525050565b6126e9816137fe565b82525050565b60006126fa82613694565b61270481856136aa565b935061271481856020860161386f565b61271d81613a0a565b840191505092915050565b60006127338261369f565b61273d81856136bb565b935061274d81856020860161386f565b61275681613a0a565b840191505092915050565b600061276c8261369f565b61277681856136cc565b935061278681856020860161386f565b80840191505092915050565b6000815461279f816138a2565b6127a981866136cc565b945060018216600081146127c457600181146127d557612808565b60ff19831686528186019350612808565b6127de8561367f565b60005b83811015612800578154818901526001820191506020810190506127e1565b838801955050505b50505092915050565b600061281e6032836136bb565b91507f4552433732313a207472616e7366657220746f206e6f6e20455243373231526560008301527f63656976657220696d706c656d656e74657200000000000000000000000000006020830152604082019050919050565b6000612884601c836136bb565b91507f4552433732313a20746f6b656e20616c7265616479206d696e746564000000006000830152602082019050919050565b60006128c4600a836136cc565b91507f54484952445f574f5244000000000000000000000000000000000000000000006000830152600a82019050919050565b60006129046024836136bb565b91507f4552433732313a207472616e7366657220746f20746865207a65726f2061646460008301527f72657373000000000000000000000000000000000000000000000000000000006020830152604082019050919050565b600061296a6019836136bb565b91507f4552433732313a20617070726f766520746f2063616c6c6572000000000000006000830152602082019050919050565b60006129aa600b836136cc565b91507f5345434f4e445f574f52440000000000000000000000000000000000000000006000830152600b82019050919050565b60006129ea602c836136bb565b91507f4552433732313a206f70657261746f7220717565727920666f72206e6f6e657860008301527f697374656e7420746f6b656e00000000000000000000000000000000000000006020830152604082019050919050565b6000612a50600d836136cc565b91507f3c2f746578743e3c2f7376673e000000000000000000000000000000000000006000830152600d82019050919050565b6000612a90601d836136bb565b91507f4d6178696d756d20646973747269627574696f6e20726561636865642e0000006000830152602082019050919050565b6000612ad06038836136bb565b91507f4552433732313a20617070726f76652063616c6c6572206973206e6f74206f7760008301527f6e6572206e6f7220617070726f76656420666f7220616c6c00000000000000006020830152604082019050919050565b6000612b36602a836136bb565b91507f4552433732313a2062616c616e636520717565727920666f7220746865207a6560008301527f726f2061646472657373000000000000000000000000000000000000000000006020830152604082019050919050565b6000612b9c6029836136bb565b91507f4552433732313a206f776e657220717565727920666f72206e6f6e657869737460008301527f656e7420746f6b656e00000000000000000000000000000000000000000000006020830152604082019050919050565b6000612c02602e836136bb565b91507f45524337323155524953746f726167653a2055524920736574206f66206e6f6e60008301527f6578697374656e7420746f6b656e0000000000000000000000000000000000006020830152604082019050919050565b6000612c686002836136cc565b91507f227d0000000000000000000000000000000000000000000000000000000000006000830152600282019050919050565b6000612ca86020836136bb565b91507f4552433732313a206d696e7420746f20746865207a65726f20616464726573736000830152602082019050919050565b6000612ce86031836136bb565b91507f45524337323155524953746f726167653a2055524920717565727920666f722060008301527f6e6f6e6578697374656e7420746f6b656e0000000000000000000000000000006020830152604082019050919050565b6000612d4e602c836136bb565b91507f4552433732313a20617070726f76656420717565727920666f72206e6f6e657860008301527f697374656e7420746f6b656e00000000000000000000000000000000000000006020830152604082019050919050565b6000612db46029836136bb565b91507f4552433732313a207472616e73666572206f6620746f6b656e2074686174206960008301527f73206e6f74206f776e00000000000000000000000000000000000000000000006020830152604082019050919050565b6000612e1a602f836136bb565b91507f4552433732314d657461646174613a2055524920717565727920666f72206e6f60008301527f6e6578697374656e7420746f6b656e00000000000000000000000000000000006020830152604082019050919050565b6000612e80600a836136cc565b91507f7b226e616d65223a2022000000000000000000000000000000000000000000006000830152600a82019050919050565b6000612ec06021836136bb565b91507f4552433732313a20617070726f76616c20746f2063757272656e74206f776e6560008301527f72000000000000000000000000000000000000000000000000000000000000006020830152604082019050919050565b6000612f26600a836136cc565b91507f46495253545f574f5244000000000000000000000000000000000000000000006000830152600a82019050919050565b6000612f666031836136bb565b91507f4552433732313a207472616e736665722063616c6c6572206973206e6f74206f60008301527f776e6572206e6f7220617070726f7665640000000000000000000000000000006020830152604082019050919050565b6000612fcc601e836136cc565b91507f646174613a6170706c69636174696f6e2f6a736f6e3b6261736536342c2000006000830152601e82019050919050565b600061300c6064836136cc565b91507f222c20226465736372697074696f6e223a20224120686967686c79206163636c60008301527f61696d656420636f6c6c656374696f6e206f66206e6577207765622e222c202260208301527f696d616765223a2022646174613a696d6167652f7376672b786d6c3b6261736560408301527f36342c20000000000000000000000000000000000000000000000000000000006060830152606482019050919050565b60006130be6005836136cc565b91507f434f4c4f520000000000000000000000000000000000000000000000000000006000830152600582019050919050565b6130fa81613856565b82525050565b600061310c8284612761565b915081905092915050565b60006131238285612761565b915061312f8284612761565b91508190509392505050565b60006131478286612761565b91506131538285612761565b915061315f8284612761565b9150819050949350505050565b6000613178828b612792565b9150613184828a612761565b91506131908289612792565b915061319c8288612761565b91506131a88287612792565b91506131b48286612761565b91506131c08285612792565b91506131cc8284612761565b91506131d782612a43565b91508190509998505050505050505050565b60006131f4826128b7565b91506132008284612761565b915081905092915050565b60006132168261299d565b91506132228284612761565b915081905092915050565b600061323882612e73565b91506132448285612761565b915061324f82612fff565b915061325b8284612761565b915061326682612c5b565b91508190509392505050565b600061327d82612f19565b91506132898284612761565b915081905092915050565b600061329f82612fbf565b91506132ab8284612761565b915081905092915050565b60006132c1826130b1565b91506132cd8284612761565b915081905092915050565b60006020820190506132ed60008301846126d1565b92915050565b600060808201905061330860008301876126d1565b61331560208301866126d1565b61332260408301856130f1565b818103606083015261333481846126ef565b905095945050505050565b600060408201905061335460008301856126d1565b61336160208301846130f1565b9392505050565b600060208201905061337d60008301846126e0565b92915050565b6000602082019050818103600083015261339d8184612728565b905092915050565b600060608201905081810360008301526133bf8186612728565b90506133ce60208301856130f1565b6133db60408301846126d1565b949350505050565b600060208201905081810360008301526133fc81612811565b9050919050565b6000602082019050818103600083015261341c81612877565b9050919050565b6000602082019050818103600083015261343c816128f7565b9050919050565b6000602082019050818103600083015261345c8161295d565b9050919050565b6000602082019050818103600083015261347c816129dd565b9050919050565b6000602082019050818103600083015261349c81612a83565b9050919050565b600060208201905081810360008301526134bc81612ac3565b9050919050565b600060208201905081810360008301526134dc81612b29565b9050919050565b600060208201905081810360008301526134fc81612b8f565b9050919050565b6000602082019050818103600083015261351c81612bf5565b9050919050565b6000602082019050818103600083015261353c81612c9b565b9050919050565b6000602082019050818103600083015261355c81612cdb565b9050919050565b6000602082019050818103600083015261357c81612d41565b9050919050565b6000602082019050818103600083015261359c81612da7565b9050919050565b600060208201905081810360008301526135bc81612e0d565b9050919050565b600060208201905081810360008301526135dc81612eb3565b9050919050565b600060208201905081810360008301526135fc81612f59565b9050919050565b600060208201905061361860008301846130f1565b92915050565b6000604051905081810181811067ffffffffffffffff82111715613645576136446139db565b5b8060405250919050565b600067ffffffffffffffff82111561366a576136696139db565b5b601f19601f8301169050602081019050919050565b60008190508160005260206000209050919050565b600081519050919050565b600081519050919050565b600082825260208201905092915050565b600082825260208201905092915050565b600081905092915050565b60006136e282613856565b91506136ed83613856565b9250827fffffffffffffffffffffffffffffffffffffffffffffffffffffffffffffffff038211156137225761372161394e565b5b828201905092915050565b600061373882613856565b915061374383613856565b9250826137535761375261397d565b5b828204905092915050565b600061376982613856565b915061377483613856565b9250817fffffffffffffffffffffffffffffffffffffffffffffffffffffffffffffffff04831182151516156137ad576137ac61394e565b5b828202905092915050565b60006137c382613856565b91506137ce83613856565b9250828210156137e1576137e061394e565b5b828203905092915050565b60006137f782613836565b9050919050565b60008115159050919050565b60007fffffffff0000000000000000000000000000000000000000000000000000000082169050919050565b600073ffffffffffffffffffffffffffffffffffffffff82169050919050565b6000819050919050565b82818337600083830152505050565b60005b8381101561388d578082015181840152602081019050613872565b8381111561389c576000848401525b50505050565b600060028204905060018216806138ba57607f821691505b602082108114156138ce576138cd6139ac565b5b50919050565b60006138df82613856565b91507fffffffffffffffffffffffffffffffffffffffffffffffffffffffffffffffff8214156139125761391161394e565b5b600182019050919050565b600061392882613856565b915061393383613856565b9250826139435761394261397d565b5b828206905092915050565b7f4e487b7100000000000000000000000000000000000000000000000000000000600052601160045260246000fd5b7f4e487b7100000000000000000000000000000000000000000000000000000000600052601260045260246000fd5b7f4e487b7100000000000000000000000000000000000000000000000000000000600052602260045260246000fd5b7f4e487b7100000000000000000000000000000000000000000000000000000000600052604160045260246000fd5b6000601f19601f8301169050919050565b613a24816137ec565b8114613a2f57600080fd5b50565b613a3b816137fe565b8114613a4657600080fd5b50565b613a528161380a565b8114613a5d57600080fd5b50565b613a6981613856565b8114613a7457600080fd5b5056fe416e204e465420772f20494420257320686173206265656e206d696e74656420746f2025734142434445464748494a4b4c4d4e4f505152535455565758595a6162636465666768696a6b6c6d6e6f707172737475767778797a303132333435363738392b2fa26469706673582212205bf8f1f5a41b2a4e0643ef50c4461187dbea9edc3e88bfb369454fdc8978feec64736f6c6343000800003327202f3e3c7465787420783d273530252720793d273235252720636c6173733d27626173652720646f6d696e616e742d626173656c696e653d276d6964646c652720746578742d616e63686f723d276d6964646c65273e3c73766720786d6c6e733d27687474703a2f2f7777772e77332e6f72672f323030302f73766727207072657365727665417370656374526174696f3d27784d696e594d696e206d656574272076696577426f783d273020302033353020333530273e3c7374796c653e2e62617365207b2066696c6c3a2077686974653b20666f6e742d66616d696c793a2073616e732d73657269663b20666f6e742d73697a653a20323470783b207d3c2f7374796c653e3c726563742077696474683d273130302527206865696768743d2731303025272066696c6c3d273c2f746578743e3c7465787420783d273530252720793d273530252720636c6173733d27626173652720646f6d696e616e742d626173656c696e653d276d6964646c652720746578742d616e63686f723d276d6964646c65273e3c2f746578743e3c7465787420783d273530252720793d273735252720636c6173733d27626173652720646f6d696e616e742d626173656c696e653d276d6964646c652720746578742d616e63686f723d276d6964646c65273e",
  "linkReferences": {},
  "deployedLinkReferences": {}
}