{
  "_format": "hh-sol-artifact-1",
  "contractName": "Transistors",
  "sourceName": "contracts/Transistors.sol",
  "abi": [
    {
      "inputs": [],
      "stateMutability": "nonpayable",
      "type": "constructor"
    },
    {
      "anonymous": false,
      "inputs": [
        {
          "indexed": true,
          "internalType": "address",
          "name": "owner",
          "type": "address"
        },
        {
          "indexed": true,
          "internalType": "address",
          "name": "approved",
          "type": "address"
        },
        {
          "indexed": true,
          "internalType": "uint256",
          "name": "tokenId",
          "type": "uint256"
        }
      ],
      "name": "Approval",
      "type": "event"
    },
    {
      "anonymous": false,
      "inputs": [
        {
          "indexed": true,
          "internalType": "address",
          "name": "owner",
          "type": "address"
        },
        {
          "indexed": true,
          "internalType": "address",
          "name": "operator",
          "type": "address"
        },
        {
          "indexed": false,
          "internalType": "bool",
          "name": "approved",
          "type": "bool"
        }
      ],
      "name": "ApprovalForAll",
      "type": "event"
    },
    {
      "anonymous": false,
      "inputs": [
        {
          "indexed": true,
          "internalType": "address",
          "name": "from",
          "type": "address"
        },
        {
          "indexed": true,
          "internalType": "address",
          "name": "to",
          "type": "address"
        },
        {
          "indexed": true,
          "internalType": "uint256",
          "name": "tokenId",
          "type": "uint256"
        }
      ],
      "name": "Transfer",
      "type": "event"
    },
    {
      "inputs": [
        {
          "internalType": "address",
          "name": "to",
          "type": "address"
        },
        {
          "internalType": "uint256",
          "name": "tokenId",
          "type": "uint256"
        }
      ],
      "name": "approve",
      "outputs": [],
      "stateMutability": "nonpayable",
      "type": "function"
    },
    {
      "inputs": [
        {
          "internalType": "address",
          "name": "owner",
          "type": "address"
        }
      ],
      "name": "balanceOf",
      "outputs": [
        {
          "internalType": "uint256",
          "name": "",
          "type": "uint256"
        }
      ],
      "stateMutability": "view",
      "type": "function"
    },
    {
      "inputs": [
        {
          "internalType": "uint256",
          "name": "tokenId",
          "type": "uint256"
        }
      ],
      "name": "getApproved",
      "outputs": [
        {
          "internalType": "address",
          "name": "",
          "type": "address"
        }
      ],
      "stateMutability": "view",
      "type": "function"
    },
    {
      "inputs": [
        {
          "internalType": "address",
          "name": "owner",
          "type": "address"
        },
        {
          "internalType": "address",
          "name": "operator",
          "type": "address"
        }
      ],
      "name": "isApprovedForAll",
      "outputs": [
        {
          "internalType": "bool",
          "name": "",
          "type": "bool"
        }
      ],
      "stateMutability": "view",
      "type": "function"
    },
    {
      "inputs": [],
      "name": "makeNFT",
      "outputs": [],
      "stateMutability": "nonpayable",
      "type": "function"
    },
    {
      "inputs": [],
      "name": "name",
      "outputs": [
        {
          "internalType": "string",
          "name": "",
          "type": "string"
        }
      ],
      "stateMutability": "view",
      "type": "function"
    },
    {
      "inputs": [
        {
          "internalType": "uint256",
          "name": "tokenId",
          "type": "uint256"
        }
      ],
      "name": "ownerOf",
      "outputs": [
        {
          "internalType": "address",
          "name": "",
          "type": "address"
        }
      ],
      "stateMutability": "view",
      "type": "function"
    },
    {
      "inputs": [
        {
          "internalType": "uint256",
          "name": "tokenId",
          "type": "uint256"
        }
      ],
      "name": "pickRandomFirstWord",
      "outputs": [
        {
          "internalType": "string",
          "name": "",
          "type": "string"
        }
      ],
      "stateMutability": "view",
      "type": "function"
    },
    {
      "inputs": [
        {
          "internalType": "uint256",
          "name": "tokenId",
          "type": "uint256"
        }
      ],
      "name": "pickRandomSecondWord",
      "outputs": [
        {
          "internalType": "string",
          "name": "",
          "type": "string"
        }
      ],
      "stateMutability": "view",
      "type": "function"
    },
    {
      "inputs": [
        {
          "internalType": "uint256",
          "name": "tokenId",
          "type": "uint256"
        }
      ],
      "name": "pickRandomThirdWord",
      "outputs": [
        {
          "internalType": "string",
          "name": "",
          "type": "string"
        }
      ],
      "stateMutability": "view",
      "type": "function"
    },
    {
      "inputs": [
        {
          "internalType": "address",
          "name": "from",
          "type": "address"
        },
        {
          "internalType": "address",
          "name": "to",
          "type": "address"
        },
        {
          "internalType": "uint256",
          "name": "tokenId",
          "type": "uint256"
        }
      ],
      "name": "safeTransferFrom",
      "outputs": [],
      "stateMutability": "nonpayable",
      "type": "function"
    },
    {
      "inputs": [
        {
          "internalType": "address",
          "name": "from",
          "type": "address"
        },
        {
          "internalType": "address",
          "name": "to",
          "type": "address"
        },
        {
          "internalType": "uint256",
          "name": "tokenId",
          "type": "uint256"
        },
        {
          "internalType": "bytes",
          "name": "_data",
          "type": "bytes"
        }
      ],
      "name": "safeTransferFrom",
      "outputs": [],
      "stateMutability": "nonpayable",
      "type": "function"
    },
    {
      "inputs": [
        {
          "internalType": "address",
          "name": "operator",
          "type": "address"
        },
        {
          "internalType": "bool",
          "name": "approved",
          "type": "bool"
        }
      ],
      "name": "setApprovalForAll",
      "outputs": [],
      "stateMutability": "nonpayable",
      "type": "function"
    },
    {
      "inputs": [
        {
          "internalType": "bytes4",
          "name": "interfaceId",
          "type": "bytes4"
        }
      ],
      "name": "supportsInterface",
      "outputs": [
        {
          "internalType": "bool",
          "name": "",
          "type": "bool"
        }
      ],
      "stateMutability": "view",
      "type": "function"
    },
    {
      "inputs": [],
      "name": "symbol",
      "outputs": [
        {
          "internalType": "string",
          "name": "",
          "type": "string"
        }
      ],
      "stateMutability": "view",
      "type": "function"
    },
    {
      "inputs": [
        {
          "internalType": "uint256",
          "name": "tokenId",
          "type": "uint256"
        }
      ],
      "name": "tokenURI",
      "outputs": [
        {
          "internalType": "string",
          "name": "",
          "type": "string"
        }
      ],
      "stateMutability": "view",
      "type": "function"
    },
    {
      "inputs": [
        {
          "internalType": "address",
          "name": "from",
          "type": "address"
        },
        {
          "internalType": "address",
          "name": "to",
          "type": "address"
        },
        {
          "internalType": "uint256",
          "name": "tokenId",
          "type": "uint256"
        }
      ],
      "name": "transferFrom",
      "outputs": [],
      "stateMutability": "nonpayable",
      "type": "function"
    }
  ],
  "bytecode": "0x608060405260405180610160016040528061013481526020016200566f6101349139600890805190602001906200003892919062001a06565b506040518060800160405280605a8152602001620055bb605a9139600990805190602001906200006a92919062001a06565b506040518060800160405280605a815260200162005615605a9139600a90805190602001906200009c92919062001a06565b50604051806107c001604052806040518060400160405280600781526020017f206172677565200000000000000000000000000000000000000000000000000081525081526020016040518060400160405280600681526020017f206675636b20000000000000000000000000000000000000000000000000000081525081526020016040518060400160405280600781526020017f206865617274200000000000000000000000000000000000000000000000000081525081526020016040518060400160405280600581526020017f206469652000000000000000000000000000000000000000000000000000000081525081526020016040518060400160405280600681526020017f207370697420000000000000000000000000000000000000000000000000000081525081526020016040518060400160405280600881526020017f2063616e746f722000000000000000000000000000000000000000000000000081525081526020016040518060400160405280600881526020017f20696e736f6c652000000000000000000000000000000000000000000000000081525081526020016040518060400160405280600681526020017f206261726b20000000000000000000000000000000000000000000000000000081525081526020016040518060400160405280600881526020017f20686f6c6c75702000000000000000000000000000000000000000000000000081525081526020016040518060400160405280600881526020017f206162736f72622000000000000000000000000000000000000000000000000081525081526020016040518060400160405280600981526020017f20616d706c69667920000000000000000000000000000000000000000000000081525081526020016040518060400160405280600681526020017f206861636b20000000000000000000000000000000000000000000000000000081525081526020016040518060400160405280600981526020017f207368696d6d657220000000000000000000000000000000000000000000000081525081526020016040518060400160405280600c81526020017f20696c6c756d696e61746520000000000000000000000000000000000000000081525081526020016040518060400160405280600981526020017f206d79737469667920000000000000000000000000000000000000000000000081525081526020016040518060400160405280600b81526020017f207472616e73666f726d2000000000000000000000000000000000000000000081525081526020016040518060400160405280600a81526020017f20756e74616e676c65200000000000000000000000000000000000000000000081525081526020016040518060400160405280600981526020017f20756e656172746820000000000000000000000000000000000000000000000081525081526020016040518060400160405280600581526020017f205249502000000000000000000000000000000000000000000000000000000081525081526020016040518060400160405280600681526020017f207269736520000000000000000000000000000000000000000000000000000081525081526020016040518060400160405280600981526020017f20676c697474657220000000000000000000000000000000000000000000000081525081526020016040518060400160405280600981526020017f20676c697374656e20000000000000000000000000000000000000000000000081525081526020016040518060400160405280600781526020017f20676c617265200000000000000000000000000000000000000000000000000081525081526020016040518060400160405280600881526020017f20676172626c652000000000000000000000000000000000000000000000000081525081526020016040518060400160405280600681526020017f206675736520000000000000000000000000000000000000000000000000000081525081526020016040518060400160405280600881526020017f207265636f696c2000000000000000000000000000000000000000000000000081525081526020016040518060400160405280600781526020017f20736e617265200000000000000000000000000000000000000000000000000081525081526020016040518060400160405280600781526020017f20647261696e200000000000000000000000000000000000000000000000000081525081526020016040518060400160405280600a81526020017f20646f776e6c6f6164200000000000000000000000000000000000000000000081525081526020016040518060400160405280600881526020017f206465766f75722000000000000000000000000000000000000000000000000081525081526020016040518060400160405280600881526020017f2064616e676c652000000000000000000000000000000000000000000000000081525081526020016040518060400160405280600781526020017f206372617368200000000000000000000000000000000000000000000000000081525081526020016040518060400160405280600681526020017f206861696c20000000000000000000000000000000000000000000000000000081525081526020016040518060400160405280600781526020017f20626f6f7374200000000000000000000000000000000000000000000000000081525081526020016040518060400160405280600781526020017f2063616e2774200000000000000000000000000000000000000000000000000081525081526020016040518060400160405280600681526020017f207368697020000000000000000000000000000000000000000000000000000081525081526020016040518060400160405280600681526020017f207a696e6720000000000000000000000000000000000000000000000000000081525081526020016040518060400160405280600581526020017f206765742000000000000000000000000000000000000000000000000000000081525081526020016040518060400160405280600681526020017f20706f737420000000000000000000000000000000000000000000000000000081525081526020016040518060400160405280600681526020017f206472697020000000000000000000000000000000000000000000000000000081525081526020016040518060400160405280600781526020017f20737465616c200000000000000000000000000000000000000000000000000081525081526020016040518060400160405280600781526020017f20736c757270200000000000000000000000000000000000000000000000000081525081526020016040518060400160405280600781526020017f20736c75726d200000000000000000000000000000000000000000000000000081525081526020016040518060400160405280600781526020017f20736e65616b200000000000000000000000000000000000000000000000000081525081526020016040518060400160405280600681526020017f207370616d20000000000000000000000000000000000000000000000000000081525081526020016040518060400160405280600981526020017f20737061726b6c6520000000000000000000000000000000000000000000000081525081526020016040518060400160405280600a81526020017f20737072696e6b6c65200000000000000000000000000000000000000000000081525081526020016040518060400160405280600681526020017f20726f6c6c20000000000000000000000000000000000000000000000000000081525081526020016040518060400160405280600781526020017f20636c6f6e65200000000000000000000000000000000000000000000000000081525081526020016040518060400160405280600881526020017f207361736861792000000000000000000000000000000000000000000000000081525081526020016040518060400160405280600681526020017f207370696e20000000000000000000000000000000000000000000000000000081525081526020016040518060400160405280600781526020017f20776869726c200000000000000000000000000000000000000000000000000081525081526020016040518060400160405280600781526020017f20686f76656c200000000000000000000000000000000000000000000000000081525081526020016040518060400160405280600681526020017f2064756d7020000000000000000000000000000000000000000000000000000081525081526020016040518060400160405280600581526020017f206e61672000000000000000000000000000000000000000000000000000000081525081526020016040518060400160405280600b81526020017f20736b79726f636b65742000000000000000000000000000000000000000000081525081526020016040518060400160405280600c81526020017f2072656d696e697363696365000000000000000000000000000000000000000081525081526020016040518060400160405280600881526020017f20666c6f7765722000000000000000000000000000000000000000000000000081525081526020016040518060400160405280600881526020017f20626c6f6f64792000000000000000000000000000000000000000000000000081525081526020016040518060400160405280600981526020017f20646576616c756520000000000000000000000000000000000000000000000081525081526020016040518060400160405280600781526020017f207461696e74200000000000000000000000000000000000000000000000000081525081526020016040518060400160405280600581526020017f2076657820000000000000000000000000000000000000000000000000000000815250815250600b90603e62000f0392919062001a97565b506040518061036001604052806040518060400160405280600581526020017ff09f98872000000000000000000000000000000000000000000000000000000081525081526020016040518060400160405280600581526020017ff09f989d2000000000000000000000000000000000000000000000000000000081525081526020016040518060400160405280600581526020017ff09f988e2000000000000000000000000000000000000000000000000000000081525081526020016040518060400160405280600581526020017ff09f98ab2000000000000000000000000000000000000000000000000000000081525081526020016040518060400160405280600581526020017ff09f98a92000000000000000000000000000000000000000000000000000000081525081526020016040518060400160405280600581526020017ff09fa5ba2000000000000000000000000000000000000000000000000000000081525081526020016040518060400160405280600581526020017ff09f98a42000000000000000000000000000000000000000000000000000000081525081526020016040518060400160405280600581526020017ff09f98b32000000000000000000000000000000000000000000000000000000081525081526020016040518060400160405280600581526020017ff09f98b12000000000000000000000000000000000000000000000000000000081525081526020016040518060400160405280600581526020017ff09f98a82000000000000000000000000000000000000000000000000000000081525081526020016040518060400160405280600581526020017ff09fa4ab2000000000000000000000000000000000000000000000000000000081525081526020016040518060400160405280600581526020017ff09fa4a52000000000000000000000000000000000000000000000000000000081525081526020016040518060400160405280600581526020017ff09f98b62000000000000000000000000000000000000000000000000000000081525081526020016040518060400160405280600581526020017ff09f98912000000000000000000000000000000000000000000000000000000081525081526020016040518060400160405280600581526020017ff09f99842000000000000000000000000000000000000000000000000000000081525081526020016040518060400160405280600581526020017ff09f98b22000000000000000000000000000000000000000000000000000000081525081526020016040518060400160405280600581526020017ff09fa5b12000000000000000000000000000000000000000000000000000000081525081526020016040518060400160405280600581526020017ff09f98b42000000000000000000000000000000000000000000000000000000081525081526020016040518060400160405280600581526020017ff09fa4a42000000000000000000000000000000000000000000000000000000081525081526020016040518060400160405280600581526020017ff09f98aa2000000000000000000000000000000000000000000000000000000081525081526020016040518060400160405280600581526020017ff09f98b52000000000000000000000000000000000000000000000000000000081525081526020016040518060400160405280600581526020017ff09fa5b42000000000000000000000000000000000000000000000000000000081525081526020016040518060400160405280600581526020017ff09fa4ae2000000000000000000000000000000000000000000000000000000081525081526020016040518060400160405280600581526020017ff09fa4a72000000000000000000000000000000000000000000000000000000081525081526020016040518060400160405280600581526020017ff09fa4912000000000000000000000000000000000000000000000000000000081525081526020016040518060400160405280600581526020017ff09fa4a02000000000000000000000000000000000000000000000000000000081525081526020016040518060400160405280600581526020017ff09fa4a120000000000000000000000000000000000000000000000000000000815250815250600c90601b6200155992919062001afe565b506040518061018001604052806040518060400160405280600581526020017f616c6f742000000000000000000000000000000000000000000000000000000081525081526020016040518060400160405280600c81526020017f6465737065726174656c7920000000000000000000000000000000000000000081525081526020016040518060400160405280600481526020017f706c73200000000000000000000000000000000000000000000000000000000081525081526020016040518060400160405280600d81526020017f636f6e746167696f75736c79200000000000000000000000000000000000000081525081526020016040518060400160405280600c81526020017f7769746820696e74656e7420000000000000000000000000000000000000000081525081526020016040518060400160405280600c81526020017f617420746865206265737420000000000000000000000000000000000000000081525081526020016040518060400160405280600381526020017f4f5720000000000000000000000000000000000000000000000000000000000081525081526020016040518060400160405280600c81526020017f636f6e7363696f75736c7920000000000000000000000000000000000000000081525081526020016040518060400160405280600581526020017f7a696e672000000000000000000000000000000000000000000000000000000081525081526020016040518060400160405280600481526020017f7a6170200000000000000000000000000000000000000000000000000000000081525081526020016040518060400160405280600581526020017f7a6f6f6d2000000000000000000000000000000000000000000000000000000081525081526020016040518060400160405280600581526020017f6177617920000000000000000000000000000000000000000000000000000000815250815250600d90600c6200183a92919062001b65565b503480156200184857600080fd5b506040518060400160405280601381526020017f7472616e736973746f7273207472616e736974000000000000000000000000008152506040518060400160405280600b81526020017f5452414e534953544f52530000000000000000000000000000000000000000008152508160009080519060200190620018cd92919062001a06565b508060019080519060200190620018e692919062001a06565b505050620019346040518060400160405280600c81526020017f436f6e73747275637465642100000000000000000000000000000000000000008152506200193a60201b620011fa1760201c565b62001d86565b620019da8160405160240162001951919062001c9a565b6040516020818303038152906040527f41304fac000000000000000000000000000000000000000000000000000000007bffffffffffffffffffffffffffffffffffffffffffffffffffffffff19166020820180517bffffffffffffffffffffffffffffffffffffffffffffffffffffffff8381831617835250505050620019dd60201b60201c565b50565b60008151905060006a636f6e736f6c652e6c6f679050602083016000808483855afa5050505050565b82805462001a149062001d10565b90600052602060002090601f01602090048101928262001a38576000855562001a84565b82601f1062001a5357805160ff191683800117855562001a84565b8280016001018555821562001a84579182015b8281111562001a8357825182559160200191906001019062001a66565b5b50905062001a93919062001bcc565b5090565b82805482825590600052602060002090810192821562001aeb579160200282015b8281111562001aea57825182908051906020019062001ad992919062001a06565b509160200191906001019062001ab8565b5b50905062001afa919062001beb565b5090565b82805482825590600052602060002090810192821562001b52579160200282015b8281111562001b5157825182908051906020019062001b4092919062001a06565b509160200191906001019062001b1f565b5b50905062001b61919062001beb565b5090565b82805482825590600052602060002090810192821562001bb9579160200282015b8281111562001bb857825182908051906020019062001ba792919062001a06565b509160200191906001019062001b86565b5b50905062001bc8919062001beb565b5090565b5b8082111562001be757600081600090555060010162001bcd565b5090565b5b8082111562001c0f576000818162001c05919062001c13565b5060010162001bec565b5090565b50805462001c219062001d10565b6000825580601f1062001c35575062001c56565b601f01602090049060005260206000209081019062001c55919062001bcc565b5b50565b600062001c668262001cbe565b62001c72818562001cc9565b935062001c8481856020860162001cda565b62001c8f8162001d75565b840191505092915050565b6000602082019050818103600083015262001cb6818462001c59565b905092915050565b600081519050919050565b600082825260208201905092915050565b60005b8381101562001cfa57808201518184015260208101905062001cdd565b8381111562001d0a576000848401525b50505050565b6000600282049050600182168062001d2957607f821691505b6020821081141562001d405762001d3f62001d46565b5b50919050565b7f4e487b7100000000000000000000000000000000000000000000000000000000600052602260045260246000fd5b6000601f19601f8301169050919050565b6138258062001d966000396000f3fe608060405234801561001057600080fd5b506004361061010b5760003560e01c806370a08231116100a2578063b187301f11610071578063b187301f146102b6578063b88d4fde146102e6578063c575757a14610302578063c87b56dd14610332578063e985e9c5146103625761010b565b806370a082311461024257806395d89b4114610272578063a22cb46514610290578063b036b4bd146102ac5761010b565b806323b872dd116100de57806323b872dd146101aa5780632de38d68146101c657806342842e0e146101f65780636352211e146102125761010b565b806301ffc9a71461011057806306fdde0314610140578063081812fc1461015e578063095ea7b31461018e575b600080fd5b61012a6004803603810190610125919061246e565b610392565b604051610137919061309b565b60405180910390f35b610148610474565b60405161015591906130b6565b60405180910390f35b610178600480360381019061017391906124c0565b610506565b6040516101859190613034565b60405180910390f35b6101a860048036038101906101a39190612432565b61058b565b005b6101c460048036038101906101bf919061232c565b6106a3565b005b6101e060048036038101906101db91906124c0565b610703565b6040516101ed91906130b6565b60405180910390f35b610210600480360381019061020b919061232c565b610821565b005b61022c600480360381019061022791906124c0565b610841565b6040516102399190613034565b60405180910390f35b61025c600480360381019061025791906122c7565b6108f3565b6040516102699190613316565b60405180910390f35b61027a6109ab565b60405161028791906130b6565b60405180910390f35b6102aa60048036038101906102a591906123f6565b610a3d565b005b6102b4610bbe565b005b6102d060048036038101906102cb91906124c0565b610d76565b6040516102dd91906130b6565b60405180910390f35b61030060048036038101906102fb919061237b565b610e94565b005b61031c600480360381019061031791906124c0565b610ef6565b60405161032991906130b6565b60405180910390f35b61034c600480360381019061034791906124c0565b611014565b60405161035991906130b6565b60405180910390f35b61037c600480360381019061037791906122f0565b611166565b604051610389919061309b565b60405180910390f35b60007f80ac58cd000000000000000000000000000000000000000000000000000000007bffffffffffffffffffffffffffffffffffffffffffffffffffffffff1916827bffffffffffffffffffffffffffffffffffffffffffffffffffffffff1916148061045d57507f5b5e139f000000000000000000000000000000000000000000000000000000007bffffffffffffffffffffffffffffffffffffffffffffffffffffffff1916827bffffffffffffffffffffffffffffffffffffffffffffffffffffffff1916145b8061046d575061046c82611293565b5b9050919050565b606060008054610483906135b5565b80601f01602080910402602001604051908101604052809291908181526020018280546104af906135b5565b80156104fc5780601f106104d1576101008083540402835291602001916104fc565b820191906000526020600020905b8154815290600101906020018083116104df57829003601f168201915b5050505050905090565b6000610511826112fd565b610550576040517f08c379a000000000000000000000000000000000000000000000000000000000815260040161054790613276565b60405180910390fd5b6004600083815260200190815260200160002060009054906101000a900473ffffffffffffffffffffffffffffffffffffffff169050919050565b600061059682610841565b90508073ffffffffffffffffffffffffffffffffffffffff168373ffffffffffffffffffffffffffffffffffffffff161415610607576040517f08c379a00000000000000000000000000000000000000000000000000000000081526004016105fe906132d6565b60405180910390fd5b8073ffffffffffffffffffffffffffffffffffffffff16610626611369565b73ffffffffffffffffffffffffffffffffffffffff16148061065557506106548161064f611369565b611166565b5b610694576040517f08c379a000000000000000000000000000000000000000000000000000000000815260040161068b906131b6565b60405180910390fd5b61069e8383611371565b505050565b6106b46106ae611369565b8261142a565b6106f3576040517f08c379a00000000000000000000000000000000000000000000000000000000081526004016106ea906132f6565b60405180910390fd5b6106fe838383611508565b505050565b6060600061073761071384611764565b6040516020016107239190612ff0565b604051602081830303815290604052611911565b9050600b805490508161074a9190613630565b9050600b8181548110610786577f4e487b7100000000000000000000000000000000000000000000000000000000600052603260045260246000fd5b90600052602060002001805461079b906135b5565b80601f01602080910402602001604051908101604052809291908181526020018280546107c7906135b5565b80156108145780601f106107e957610100808354040283529160200191610814565b820191906000526020600020905b8154815290600101906020018083116107f757829003601f168201915b5050505050915050919050565b61083c83838360405180602001604052806000815250610e94565b505050565b6000806002600084815260200190815260200160002060009054906101000a900473ffffffffffffffffffffffffffffffffffffffff169050600073ffffffffffffffffffffffffffffffffffffffff168173ffffffffffffffffffffffffffffffffffffffff1614156108ea576040517f08c379a00000000000000000000000000000000000000000000000000000000081526004016108e1906131f6565b60405180910390fd5b80915050919050565b60008073ffffffffffffffffffffffffffffffffffffffff168273ffffffffffffffffffffffffffffffffffffffff161415610964576040517f08c379a000000000000000000000000000000000000000000000000000000000815260040161095b906131d6565b60405180910390fd5b600360008373ffffffffffffffffffffffffffffffffffffffff1673ffffffffffffffffffffffffffffffffffffffff168152602001908152602001600020549050919050565b6060600180546109ba906135b5565b80601f01602080910402602001604051908101604052809291908181526020018280546109e6906135b5565b8015610a335780601f10610a0857610100808354040283529160200191610a33565b820191906000526020600020905b815481529060010190602001808311610a1657829003601f168201915b5050505050905090565b610a45611369565b73ffffffffffffffffffffffffffffffffffffffff168273ffffffffffffffffffffffffffffffffffffffff161415610ab3576040517f08c379a0000000000000000000000000000000000000000000000000000000008152600401610aaa90613176565b60405180910390fd5b8060056000610ac0611369565b73ffffffffffffffffffffffffffffffffffffffff1673ffffffffffffffffffffffffffffffffffffffff16815260200190815260200160002060008473ffffffffffffffffffffffffffffffffffffffff1673ffffffffffffffffffffffffffffffffffffffff16815260200190815260200160002060006101000a81548160ff0219169083151502179055508173ffffffffffffffffffffffffffffffffffffffff16610b6d611369565b73ffffffffffffffffffffffffffffffffffffffff167f17307eab39ab6107e8899845ad3d59bd9653f200f220920489ca2b5937696c3183604051610bb2919061309b565b60405180910390a35050565b6000610bca6007611944565b90506000610bd782610703565b90506000610be483610d76565b90506000610bf184610ef6565b90506000838383604051602001610c0a93929190612ed3565b60405160208183030381529060405290506000600885600986600a87604051602001610c3b96959493929190612f04565b60405160208183030381529060405290506000610c8083610c5b84611952565b604051602001610c6c929190612fab565b604051602081830303815290604052611952565b9050600081604051602001610c959190613012565b6040516020818303038152906040529050610ce46040518060400160405280601b81526020017f0a2d2d2d2d2d2d2d2d2d2d2d2d2d2d2d2d2d2d2d2d2d2d2d2d2d2d00000000008152506111fa565b610ced816111fa565b610d2b6040518060400160405280601b81526020017f0a2d2d2d2d2d2d2d2d2d2d2d2d2d2d2d2d2d2d2d2d2d2d2d2d2d2d00000000008152506111fa565b610d353389611af1565b610d3f8882611b0f565b610d6260405180606001604052806025815260200161378b602591398933611b83565b610d6c6007611c22565b5050505050505050565b60606000610daa610d8684611764565b604051602001610d969190612f89565b604051602081830303815290604052611911565b9050600c8054905081610dbd9190613630565b9050600c8181548110610df9577f4e487b7100000000000000000000000000000000000000000000000000000000600052603260045260246000fd5b906000526020600020018054610e0e906135b5565b80601f0160208091040260200160405190810160405280929190818152602001828054610e3a906135b5565b8015610e875780601f10610e5c57610100808354040283529160200191610e87565b820191906000526020600020905b815481529060010190602001808311610e6a57829003601f168201915b5050505050915050919050565b610ea5610e9f611369565b8361142a565b610ee4576040517f08c379a0000000000000000000000000000000000000000000000000000000008152600401610edb906132f6565b60405180910390fd5b610ef084848484611c38565b50505050565b60606000610f2a610f0684611764565b604051602001610f169190612f67565b604051602081830303815290604052611911565b9050600d8054905081610f3d9190613630565b9050600d8181548110610f79577f4e487b7100000000000000000000000000000000000000000000000000000000600052603260045260246000fd5b906000526020600020018054610f8e906135b5565b80601f0160208091040260200160405190810160405280929190818152602001828054610fba906135b5565b80156110075780601f10610fdc57610100808354040283529160200191611007565b820191906000526020600020905b815481529060010190602001808311610fea57829003601f168201915b5050505050915050919050565b606061101f826112fd565b61105e576040517f08c379a000000000000000000000000000000000000000000000000000000000815260040161105590613256565b60405180910390fd5b600060066000848152602001908152602001600020805461107e906135b5565b80601f01602080910402602001604051908101604052809291908181526020018280546110aa906135b5565b80156110f75780601f106110cc576101008083540402835291602001916110f7565b820191906000526020600020905b8154815290600101906020018083116110da57829003601f168201915b505050505090506000611108611c94565b905060008151141561111e578192505050611161565b60008251111561115357808260405160200161113b929190612eaf565b60405160208183030381529060405292505050611161565b61115c84611cab565b925050505b919050565b6000600560008473ffffffffffffffffffffffffffffffffffffffff1673ffffffffffffffffffffffffffffffffffffffff16815260200190815260200160002060008373ffffffffffffffffffffffffffffffffffffffff1673ffffffffffffffffffffffffffffffffffffffff16815260200190815260200160002060009054906101000a900460ff16905092915050565b6112908160405160240161120e91906130b6565b6040516020818303038152906040527f41304fac000000000000000000000000000000000000000000000000000000007bffffffffffffffffffffffffffffffffffffffffffffffffffffffff19166020820180517bffffffffffffffffffffffffffffffffffffffffffffffffffffffff8381831617835250505050611d52565b50565b60007f01ffc9a7000000000000000000000000000000000000000000000000000000007bffffffffffffffffffffffffffffffffffffffffffffffffffffffff1916827bffffffffffffffffffffffffffffffffffffffffffffffffffffffff1916149050919050565b60008073ffffffffffffffffffffffffffffffffffffffff166002600084815260200190815260200160002060009054906101000a900473ffffffffffffffffffffffffffffffffffffffff1673ffffffffffffffffffffffffffffffffffffffff1614159050919050565b600033905090565b816004600083815260200190815260200160002060006101000a81548173ffffffffffffffffffffffffffffffffffffffff021916908373ffffffffffffffffffffffffffffffffffffffff160217905550808273ffffffffffffffffffffffffffffffffffffffff166113e483610841565b73ffffffffffffffffffffffffffffffffffffffff167f8c5be1e5ebec7d5bd14f71427d1e84f3dd0314c0f7b2291e5b200ac8c7c3b92560405160405180910390a45050565b6000611435826112fd565b611474576040517f08c379a000000000000000000000000000000000000000000000000000000000815260040161146b90613196565b60405180910390fd5b600061147f83610841565b90508073ffffffffffffffffffffffffffffffffffffffff168473ffffffffffffffffffffffffffffffffffffffff1614806114ee57508373ffffffffffffffffffffffffffffffffffffffff166114d684610506565b73ffffffffffffffffffffffffffffffffffffffff16145b806114ff57506114fe8185611166565b5b91505092915050565b8273ffffffffffffffffffffffffffffffffffffffff1661152882610841565b73ffffffffffffffffffffffffffffffffffffffff161461157e576040517f08c379a000000000000000000000000000000000000000000000000000000000815260040161157590613296565b60405180910390fd5b600073ffffffffffffffffffffffffffffffffffffffff168273ffffffffffffffffffffffffffffffffffffffff1614156115ee576040517f08c379a00000000000000000000000000000000000000000000000000000000081526004016115e590613156565b60405180910390fd5b6115f9838383611d7b565b611604600082611371565b6001600360008573ffffffffffffffffffffffffffffffffffffffff1673ffffffffffffffffffffffffffffffffffffffff168152602001908152602001600020600082825461165491906134cb565b925050819055506001600360008473ffffffffffffffffffffffffffffffffffffffff1673ffffffffffffffffffffffffffffffffffffffff16815260200190815260200160002060008282546116ab91906133ea565b92505081905550816002600083815260200190815260200160002060006101000a81548173ffffffffffffffffffffffffffffffffffffffff021916908373ffffffffffffffffffffffffffffffffffffffff160217905550808273ffffffffffffffffffffffffffffffffffffffff168473ffffffffffffffffffffffffffffffffffffffff167fddf252ad1be2c89b69c2b068fc378daa952ba7f163c4a11628f55a4df523b3ef60405160405180910390a4505050565b606060008214156117ac576040518060400160405280600181526020017f3000000000000000000000000000000000000000000000000000000000000000815250905061190c565b600082905060005b600082146117de5780806117c7906135e7565b915050600a826117d79190613440565b91506117b4565b60008167ffffffffffffffff811115611820577f4e487b7100000000000000000000000000000000000000000000000000000000600052604160045260246000fd5b6040519080825280601f01601f1916602001820160405280156118525781602001600182028036833780820191505090505b5090505b600085146119055760018261186b91906134cb565b9150600a8561187a9190613630565b603061188691906133ea565b60f81b8183815181106118c2577f4e487b7100000000000000000000000000000000000000000000000000000000600052603260045260246000fd5b60200101907effffffffffffffffffffffffffffffffffffffffffffffffffffffffffffff1916908160001a905350600a856118fe9190613440565b9450611856565b8093505050505b919050565b6000816040516020016119249190612e98565b6040516020818303038152906040528051906020012060001c9050919050565b600081600001549050919050565b606060008251141561197557604051806020016040528060008152509050611aec565b60006040518060600160405280604081526020016137b060409139905060006003600285516119a491906133ea565b6119ae9190613440565b60046119ba9190613471565b905060006020826119cb91906133ea565b67ffffffffffffffff811115611a0a577f4e487b7100000000000000000000000000000000000000000000000000000000600052604160045260246000fd5b6040519080825280601f01601f191660200182016040528015611a3c5781602001600182028036833780820191505090505b509050818152600183018586518101602084015b81831015611aab576003830192508251603f8160121c168501518253600182019150603f81600c1c168501518253600182019150603f8160061c168501518253600182019150603f8116850151825360018201915050611a50565b600389510660018114611ac55760028114611ad557611ae0565b613d3d60f01b6002830352611ae0565b603d60f81b60018303525b50505050508093505050505b919050565b611b0b828260405180602001604052806000815250611d80565b5050565b611b18826112fd565b611b57576040517f08c379a0000000000000000000000000000000000000000000000000000000008152600401611b4e90613216565b60405180910390fd5b80600660008481526020019081526020016000209080519060200190611b7e929190612153565b505050565b611c1d838383604051602401611b9b939291906130d8565b6040516020818303038152906040527fe3849f79000000000000000000000000000000000000000000000000000000007bffffffffffffffffffffffffffffffffffffffffffffffffffffffff19166020820180517bffffffffffffffffffffffffffffffffffffffffffffffffffffffff8381831617835250505050611d52565b505050565b6001816000016000828254019250508190555050565b611c43848484611508565b611c4f84848484611ddb565b611c8e576040517f08c379a0000000000000000000000000000000000000000000000000000000008152600401611c8590613116565b60405180910390fd5b50505050565b606060405180602001604052806000815250905090565b6060611cb6826112fd565b611cf5576040517f08c379a0000000000000000000000000000000000000000000000000000000008152600401611cec906132b6565b60405180910390fd5b6000611cff611c94565b90506000815111611d1f5760405180602001604052806000815250611d4a565b80611d2984611764565b604051602001611d3a929190612eaf565b6040516020818303038152906040525b915050919050565b60008151905060006a636f6e736f6c652e6c6f679050602083016000808483855afa5050505050565b505050565b611d8a8383611f72565b611d976000848484611ddb565b611dd6576040517f08c379a0000000000000000000000000000000000000000000000000000000008152600401611dcd90613116565b60405180910390fd5b505050565b6000611dfc8473ffffffffffffffffffffffffffffffffffffffff16612140565b15611f65578373ffffffffffffffffffffffffffffffffffffffff1663150b7a02611e25611369565b8786866040518563ffffffff1660e01b8152600401611e47949392919061304f565b602060405180830381600087803b158015611e6157600080fd5b505af1925050508015611e9257506040513d601f19601f82011682018060405250810190611e8f9190612497565b60015b611f15573d8060008114611ec2576040519150601f19603f3d011682016040523d82523d6000602084013e611ec7565b606091505b50600081511415611f0d576040517f08c379a0000000000000000000000000000000000000000000000000000000008152600401611f0490613116565b60405180910390fd5b805181602001fd5b63150b7a0260e01b7bffffffffffffffffffffffffffffffffffffffffffffffffffffffff1916817bffffffffffffffffffffffffffffffffffffffffffffffffffffffff191614915050611f6a565b600190505b949350505050565b600073ffffffffffffffffffffffffffffffffffffffff168273ffffffffffffffffffffffffffffffffffffffff161415611fe2576040517f08c379a0000000000000000000000000000000000000000000000000000000008152600401611fd990613236565b60405180910390fd5b611feb816112fd565b1561202b576040517f08c379a000000000000000000000000000000000000000000000000000000000815260040161202290613136565b60405180910390fd5b61203760008383611d7b565b6001600360008473ffffffffffffffffffffffffffffffffffffffff1673ffffffffffffffffffffffffffffffffffffffff168152602001908152602001600020600082825461208791906133ea565b92505081905550816002600083815260200190815260200160002060006101000a81548173ffffffffffffffffffffffffffffffffffffffff021916908373ffffffffffffffffffffffffffffffffffffffff160217905550808273ffffffffffffffffffffffffffffffffffffffff16600073ffffffffffffffffffffffffffffffffffffffff167fddf252ad1be2c89b69c2b068fc378daa952ba7f163c4a11628f55a4df523b3ef60405160405180910390a45050565b600080823b905060008111915050919050565b82805461215f906135b5565b90600052602060002090601f01602090048101928261218157600085556121c8565b82601f1061219a57805160ff19168380011785556121c8565b828001600101855582156121c8579182015b828111156121c75782518255916020019190600101906121ac565b5b5090506121d591906121d9565b5090565b5b808211156121f25760008160009055506001016121da565b5090565b600061220961220484613362565b613331565b90508281526020810184848401111561222157600080fd5b61222c848285613573565b509392505050565b6000813590506122438161372e565b92915050565b60008135905061225881613745565b92915050565b60008135905061226d8161375c565b92915050565b6000815190506122828161375c565b92915050565b600082601f83011261229957600080fd5b81356122a98482602086016121f6565b91505092915050565b6000813590506122c181613773565b92915050565b6000602082840312156122d957600080fd5b60006122e784828501612234565b91505092915050565b6000806040838503121561230357600080fd5b600061231185828601612234565b925050602061232285828601612234565b9150509250929050565b60008060006060848603121561234157600080fd5b600061234f86828701612234565b935050602061236086828701612234565b9250506040612371868287016122b2565b9150509250925092565b6000806000806080858703121561239157600080fd5b600061239f87828801612234565b94505060206123b087828801612234565b93505060406123c1878288016122b2565b925050606085013567ffffffffffffffff8111156123de57600080fd5b6123ea87828801612288565b91505092959194509250565b6000806040838503121561240957600080fd5b600061241785828601612234565b925050602061242885828601612249565b9150509250929050565b6000806040838503121561244557600080fd5b600061245385828601612234565b9250506020612464858286016122b2565b9150509250929050565b60006020828403121561248057600080fd5b600061248e8482850161225e565b91505092915050565b6000602082840312156124a957600080fd5b60006124b784828501612273565b91505092915050565b6000602082840312156124d257600080fd5b60006124e0848285016122b2565b91505092915050565b6124f2816134ff565b82525050565b61250181613511565b82525050565b6000612512826133a7565b61251c81856133bd565b935061252c818560208601613582565b6125358161371d565b840191505092915050565b600061254b826133b2565b61255581856133ce565b9350612565818560208601613582565b61256e8161371d565b840191505092915050565b6000612584826133b2565b61258e81856133df565b935061259e818560208601613582565b80840191505092915050565b600081546125b7816135b5565b6125c181866133df565b945060018216600081146125dc57600181146125ed57612620565b60ff19831686528186019350612620565b6125f685613392565b60005b83811015612618578154818901526001820191506020810190506125f9565b838801955050505b50505092915050565b60006126366032836133ce565b91507f4552433732313a207472616e7366657220746f206e6f6e20455243373231526560008301527f63656976657220696d706c656d656e74657200000000000000000000000000006020830152604082019050919050565b600061269c601c836133ce565b91507f4552433732313a20746f6b656e20616c7265616479206d696e746564000000006000830152602082019050919050565b60006126dc600a836133df565b91507f54484952445f574f5244000000000000000000000000000000000000000000006000830152600a82019050919050565b600061271c6024836133ce565b91507f4552433732313a207472616e7366657220746f20746865207a65726f2061646460008301527f72657373000000000000000000000000000000000000000000000000000000006020830152604082019050919050565b60006127826019836133ce565b91507f4552433732313a20617070726f766520746f2063616c6c6572000000000000006000830152602082019050919050565b60006127c2600b836133df565b91507f5345434f4e445f574f52440000000000000000000000000000000000000000006000830152600b82019050919050565b6000612802602c836133ce565b91507f4552433732313a206f70657261746f7220717565727920666f72206e6f6e657860008301527f697374656e7420746f6b656e00000000000000000000000000000000000000006020830152604082019050919050565b6000612868600d836133df565b91507f3c2f746578743e3c2f7376673e000000000000000000000000000000000000006000830152600d82019050919050565b60006128a86038836133ce565b91507f4552433732313a20617070726f76652063616c6c6572206973206e6f74206f7760008301527f6e6572206e6f7220617070726f76656420666f7220616c6c00000000000000006020830152604082019050919050565b600061290e602a836133ce565b91507f4552433732313a2062616c616e636520717565727920666f7220746865207a6560008301527f726f2061646472657373000000000000000000000000000000000000000000006020830152604082019050919050565b60006129746029836133ce565b91507f4552433732313a206f776e657220717565727920666f72206e6f6e657869737460008301527f656e7420746f6b656e00000000000000000000000000000000000000000000006020830152604082019050919050565b60006129da602e836133ce565b91507f45524337323155524953746f726167653a2055524920736574206f66206e6f6e60008301527f6578697374656e7420746f6b656e0000000000000000000000000000000000006020830152604082019050919050565b6000612a406002836133df565b91507f227d0000000000000000000000000000000000000000000000000000000000006000830152600282019050919050565b6000612a806020836133ce565b91507f4552433732313a206d696e7420746f20746865207a65726f20616464726573736000830152602082019050919050565b6000612ac06031836133ce565b91507f45524337323155524953746f726167653a2055524920717565727920666f722060008301527f6e6f6e6578697374656e7420746f6b656e0000000000000000000000000000006020830152604082019050919050565b6000612b26602c836133ce565b91507f4552433732313a20617070726f76656420717565727920666f72206e6f6e657860008301527f697374656e7420746f6b656e00000000000000000000000000000000000000006020830152604082019050919050565b6000612b8c6029836133ce565b91507f4552433732313a207472616e73666572206f6620746f6b656e2074686174206960008301527f73206e6f74206f776e00000000000000000000000000000000000000000000006020830152604082019050919050565b6000612bf2602f836133ce565b91507f4552433732314d657461646174613a2055524920717565727920666f72206e6f60008301527f6e6578697374656e7420746f6b656e00000000000000000000000000000000006020830152604082019050919050565b6000612c58600a836133df565b91507f7b226e616d65223a2022000000000000000000000000000000000000000000006000830152600a82019050919050565b6000612c986021836133ce565b91507f4552433732313a20617070726f76616c20746f2063757272656e74206f776e6560008301527f72000000000000000000000000000000000000000000000000000000000000006020830152604082019050919050565b6000612cfe600a836133df565b91507f46495253545f574f5244000000000000000000000000000000000000000000006000830152600a82019050919050565b6000612d3e6031836133ce565b91507f4552433732313a207472616e736665722063616c6c6572206973206e6f74206f60008301527f776e6572206e6f7220617070726f7665640000000000000000000000000000006020830152604082019050919050565b6000612da4601e836133df565b91507f646174613a6170706c69636174696f6e2f6a736f6e3b6261736536342c2000006000830152601e82019050919050565b6000612de46064836133df565b91507f222c20226465736372697074696f6e223a20224120686967686c79206163636c60008301527f61696d656420636f6c6c656374696f6e206f66206e6577207765622e222c202260208301527f696d616765223a2022646174613a696d6167652f7376672b786d6c3b6261736560408301527f36342c20000000000000000000000000000000000000000000000000000000006060830152606482019050919050565b612e9281613569565b82525050565b6000612ea48284612579565b915081905092915050565b6000612ebb8285612579565b9150612ec78284612579565b91508190509392505050565b6000612edf8286612579565b9150612eeb8285612579565b9150612ef78284612579565b9150819050949350505050565b6000612f1082896125aa565b9150612f1c8288612579565b9150612f2882876125aa565b9150612f348286612579565b9150612f4082856125aa565b9150612f4c8284612579565b9150612f578261285b565b9150819050979650505050505050565b6000612f72826126cf565b9150612f7e8284612579565b915081905092915050565b6000612f94826127b5565b9150612fa08284612579565b915081905092915050565b6000612fb682612c4b565b9150612fc28285612579565b9150612fcd82612dd7565b9150612fd98284612579565b9150612fe482612a33565b91508190509392505050565b6000612ffb82612cf1565b91506130078284612579565b915081905092915050565b600061301d82612d97565b91506130298284612579565b915081905092915050565b600060208201905061304960008301846124e9565b92915050565b600060808201905061306460008301876124e9565b61307160208301866124e9565b61307e6040830185612e89565b81810360608301526130908184612507565b905095945050505050565b60006020820190506130b060008301846124f8565b92915050565b600060208201905081810360008301526130d08184612540565b905092915050565b600060608201905081810360008301526130f28186612540565b90506131016020830185612e89565b61310e60408301846124e9565b949350505050565b6000602082019050818103600083015261312f81612629565b9050919050565b6000602082019050818103600083015261314f8161268f565b9050919050565b6000602082019050818103600083015261316f8161270f565b9050919050565b6000602082019050818103600083015261318f81612775565b9050919050565b600060208201905081810360008301526131af816127f5565b9050919050565b600060208201905081810360008301526131cf8161289b565b9050919050565b600060208201905081810360008301526131ef81612901565b9050919050565b6000602082019050818103600083015261320f81612967565b9050919050565b6000602082019050818103600083015261322f816129cd565b9050919050565b6000602082019050818103600083015261324f81612a73565b9050919050565b6000602082019050818103600083015261326f81612ab3565b9050919050565b6000602082019050818103600083015261328f81612b19565b9050919050565b600060208201905081810360008301526132af81612b7f565b9050919050565b600060208201905081810360008301526132cf81612be5565b9050919050565b600060208201905081810360008301526132ef81612c8b565b9050919050565b6000602082019050818103600083015261330f81612d31565b9050919050565b600060208201905061332b6000830184612e89565b92915050565b6000604051905081810181811067ffffffffffffffff82111715613358576133576136ee565b5b8060405250919050565b600067ffffffffffffffff82111561337d5761337c6136ee565b5b601f19601f8301169050602081019050919050565b60008190508160005260206000209050919050565b600081519050919050565b600081519050919050565b600082825260208201905092915050565b600082825260208201905092915050565b600081905092915050565b60006133f582613569565b915061340083613569565b9250827fffffffffffffffffffffffffffffffffffffffffffffffffffffffffffffffff0382111561343557613434613661565b5b828201905092915050565b600061344b82613569565b915061345683613569565b92508261346657613465613690565b5b828204905092915050565b600061347c82613569565b915061348783613569565b9250817fffffffffffffffffffffffffffffffffffffffffffffffffffffffffffffffff04831182151516156134c0576134bf613661565b5b828202905092915050565b60006134d682613569565b91506134e183613569565b9250828210156134f4576134f3613661565b5b828203905092915050565b600061350a82613549565b9050919050565b60008115159050919050565b60007fffffffff0000000000000000000000000000000000000000000000000000000082169050919050565b600073ffffffffffffffffffffffffffffffffffffffff82169050919050565b6000819050919050565b82818337600083830152505050565b60005b838110156135a0578082015181840152602081019050613585565b838111156135af576000848401525b50505050565b600060028204905060018216806135cd57607f821691505b602082108114156135e1576135e06136bf565b5b50919050565b60006135f282613569565b91507fffffffffffffffffffffffffffffffffffffffffffffffffffffffffffffffff82141561362557613624613661565b5b600182019050919050565b600061363b82613569565b915061364683613569565b92508261365657613655613690565b5b828206905092915050565b7f4e487b7100000000000000000000000000000000000000000000000000000000600052601160045260246000fd5b7f4e487b7100000000000000000000000000000000000000000000000000000000600052601260045260246000fd5b7f4e487b7100000000000000000000000000000000000000000000000000000000600052602260045260246000fd5b7f4e487b7100000000000000000000000000000000000000000000000000000000600052604160045260246000fd5b6000601f19601f8301169050919050565b613737816134ff565b811461374257600080fd5b50565b61374e81613511565b811461375957600080fd5b50565b6137658161351d565b811461377057600080fd5b50565b61377c81613569565b811461378757600080fd5b5056fe416e204e465420772f20494420257320686173206265656e206d696e74656420746f2025734142434445464748494a4b4c4d4e4f505152535455565758595a6162636465666768696a6b6c6d6e6f707172737475767778797a303132333435363738392b2fa26469706673582212207bf02a38e5f5470b7e5127a758dbd66c31f004a76ca7ae3e4fb2d0694669a6c664736f6c634300080000333c2f746578743e3c7465787420783d273530252720793d273530252720636c6173733d27626173652720646f6d696e616e742d626173656c696e653d276d6964646c652720746578742d616e63686f723d276d6964646c65273e3c2f746578743e3c7465787420783d273530252720793d273730252720636c6173733d27626173652720646f6d696e616e742d626173656c696e653d276d6964646c652720746578742d616e63686f723d276d6964646c65273e3c73766720786d6c6e733d27687474703a2f2f7777772e77332e6f72672f323030302f73766727207072657365727665417370656374526174696f3d27784d696e594d696e206d656574272076696577426f783d273020302033353020333530273e3c7374796c653e2e62617365207b2066696c6c3a2077686974653b20666f6e742d66616d696c793a2073616e732d73657269663b20666f6e742d73697a653a20323470783b207d3c2f7374796c653e3c726563742077696474683d273130302527206865696768743d2731303025272066696c6c3d27626c61636b27202f3e3c7465787420783d273530252720793d273230252720636c6173733d27626173652720646f6d696e616e742d626173656c696e653d276d6964646c652720746578742d616e63686f723d276d6964646c65273e",
  "linkReferences": {},
  "deployedLinkReferences": {}
}